{
  "_format": "hh-sol-artifact-1",
  "contractName": "UserContract",
  "sourceName": "contracts/UserContract.sol",
  "abi": [
    {
      "anonymous": false,
      "inputs": [
        {
          "indexed": true,
          "internalType": "address",
          "name": "userAddress",
          "type": "address"
        },
        {
          "indexed": false,
          "internalType": "string",
          "name": "name",
          "type": "string"
        }
      ],
      "name": "UserRegistered",
      "type": "event"
    },
    {
      "inputs": [
        {
          "internalType": "address",
          "name": "",
          "type": "address"
        }
      ],
      "name": "Users",
      "outputs": [
        {
          "internalType": "uint256",
          "name": "userId",
          "type": "uint256"
        },
        {
          "internalType": "string",
          "name": "name",
          "type": "string"
        },
        {
          "internalType": "uint256",
          "name": "age",
          "type": "uint256"
        },
        {
          "internalType": "string",
          "name": "city",
          "type": "string"
        },
        {
          "internalType": "string",
          "name": "profession",
          "type": "string"
        },
        {
          "internalType": "address",
          "name": "userAddress",
          "type": "address"
        },
        {
          "internalType": "uint256",
          "name": "strikes",
          "type": "uint256"
        },
        {
          "internalType": "string",
          "name": "phone",
          "type": "string"
        }
      ],
      "stateMutability": "view",
      "type": "function"
    },
    {
      "inputs": [
        {
          "internalType": "address",
          "name": "_user",
          "type": "address"
        }
      ],
      "name": "addStrike",
      "outputs": [],
      "stateMutability": "nonpayable",
      "type": "function"
    },
    {
      "inputs": [
        {
          "internalType": "string",
          "name": "_name",
          "type": "string"
        },
        {
          "internalType": "uint256",
          "name": "_age",
          "type": "uint256"
        },
        {
          "internalType": "string",
          "name": "_city",
          "type": "string"
        },
        {
          "internalType": "string",
          "name": "_profession",
          "type": "string"
        },
        {
          "internalType": "string",
          "name": "_phone",
          "type": "string"
        }
      ],
      "name": "addUser",
      "outputs": [],
      "stateMutability": "nonpayable",
      "type": "function"
    },
    {
      "inputs": [
        {
          "internalType": "address",
          "name": "_user",
          "type": "address"
        }
      ],
      "name": "getUser",
      "outputs": [
        {
          "components": [
            {
              "internalType": "uint256",
              "name": "userId",
              "type": "uint256"
            },
            {
              "internalType": "string",
              "name": "name",
              "type": "string"
            },
            {
              "internalType": "uint256",
              "name": "age",
              "type": "uint256"
            },
            {
              "internalType": "string",
              "name": "city",
              "type": "string"
            },
            {
              "internalType": "string",
              "name": "profession",
              "type": "string"
            },
            {
              "internalType": "address",
              "name": "userAddress",
              "type": "address"
            },
            {
              "internalType": "uint256",
              "name": "strikes",
              "type": "uint256"
            },
            {
              "internalType": "string",
              "name": "phone",
              "type": "string"
            }
          ],
          "internalType": "struct UserContract.User",
          "name": "",
          "type": "tuple"
        }
      ],
      "stateMutability": "view",
      "type": "function"
    }
  ],
  "bytecode": "0x60806040526000805534801561001457600080fd5b50611377806100246000396000f3fe608060405234801561001057600080fd5b506004361061004c5760003560e01c80632bfd740f146100515780636f77926b1461006d57806399b956a01461009d578063d211c478146100d4575b600080fd5b61006b60048036038101906100669190610a44565b6100f0565b005b61008760048036038101906100829190610a44565b61014b565b6040516100949190610bee565b60405180910390f35b6100b760048036038101906100b29190610a44565b610461565b6040516100cb989796959493929190610c78565b60405180910390f35b6100ee60048036038101906100e99190610e73565b6106e9565b005b600160008273ffffffffffffffffffffffffffffffffffffffff1673ffffffffffffffffffffffffffffffffffffffff168152602001908152602001600020600601600081548092919061014390610f8d565b919050555050565b610153610977565b600160008373ffffffffffffffffffffffffffffffffffffffff1673ffffffffffffffffffffffffffffffffffffffff16815260200190815260200160002060405180610100016040529081600082015481526020016001820180546101b890611004565b80601f01602080910402602001604051908101604052809291908181526020018280546101e490611004565b80156102315780601f1061020657610100808354040283529160200191610231565b820191906000526020600020905b81548152906001019060200180831161021457829003601f168201915b505050505081526020016002820154815260200160038201805461025490611004565b80601f016020809104026020016040519081016040528092919081815260200182805461028090611004565b80156102cd5780601f106102a2576101008083540402835291602001916102cd565b820191906000526020600020905b8154815290600101906020018083116102b057829003601f168201915b505050505081526020016004820180546102e690611004565b80601f016020809104026020016040519081016040528092919081815260200182805461031290611004565b801561035f5780601f106103345761010080835404028352916020019161035f565b820191906000526020600020905b81548152906001019060200180831161034257829003601f168201915b505050505081526020016005820160009054906101000a900473ffffffffffffffffffffffffffffffffffffffff1673ffffffffffffffffffffffffffffffffffffffff1673ffffffffffffffffffffffffffffffffffffffff168152602001600682015481526020016007820180546103d890611004565b80601f016020809104026020016040519081016040528092919081815260200182805461040490611004565b80156104515780601f1061042657610100808354040283529160200191610451565b820191906000526020600020905b81548152906001019060200180831161043457829003601f168201915b5050505050815250509050919050565b600160205280600052604060002060009150905080600001549080600101805461048a90611004565b80601f01602080910402602001604051908101604052809291908181526020018280546104b690611004565b80156105035780601f106104d857610100808354040283529160200191610503565b820191906000526020600020905b8154815290600101906020018083116104e657829003601f168201915b50505050509080600201549080600301805461051e90611004565b80601f016020809104026020016040519081016040528092919081815260200182805461054a90611004565b80156105975780601f1061056c57610100808354040283529160200191610597565b820191906000526020600020905b81548152906001019060200180831161057a57829003601f168201915b5050505050908060040180546105ac90611004565b80601f01602080910402602001604051908101604052809291908181526020018280546105d890611004565b80156106255780601f106105fa57610100808354040283529160200191610625565b820191906000526020600020905b81548152906001019060200180831161060857829003601f168201915b5050505050908060050160009054906101000a900473ffffffffffffffffffffffffffffffffffffffff169080600601549080600701805461066690611004565b80601f016020809104026020016040519081016040528092919081815260200182805461069290611004565b80156106df5780601f106106b4576101008083540402835291602001916106df565b820191906000526020600020905b8154815290600101906020018083116106c257829003601f168201915b5050505050905088565b3373ffffffffffffffffffffffffffffffffffffffff16600160003373ffffffffffffffffffffffffffffffffffffffff1673ffffffffffffffffffffffffffffffffffffffff16815260200190815260200160002060050160009054906101000a900473ffffffffffffffffffffffffffffffffffffffff1673ffffffffffffffffffffffffffffffffffffffff16036107b9576040517f08c379a00000000000000000000000000000000000000000000000000000000081526004016107b090611081565b60405180910390fd5b60405180610100016040528060005481526020018681526020018581526020018481526020018381526020013373ffffffffffffffffffffffffffffffffffffffff1681526020016000815260200182815250600160003373ffffffffffffffffffffffffffffffffffffffff1673ffffffffffffffffffffffffffffffffffffffff16815260200190815260200160002060008201518160000155602082015181600101908161086a919061124d565b5060408201518160020155606082015181600301908161088a919061124d565b5060808201518160040190816108a0919061124d565b5060a08201518160050160006101000a81548173ffffffffffffffffffffffffffffffffffffffff021916908373ffffffffffffffffffffffffffffffffffffffff16021790555060c0820151816006015560e0820151816007019081610907919061124d565b509050503373ffffffffffffffffffffffffffffffffffffffff167f48cac28ad4dc618e15f4c2dd5e97751182f166de97b25618318b2112aa951a2f86604051610951919061131f565b60405180910390a260008081548092919061096b90610f8d565b91905055505050505050565b6040518061010001604052806000815260200160608152602001600081526020016060815260200160608152602001600073ffffffffffffffffffffffffffffffffffffffff16815260200160008152602001606081525090565b6000604051905090565b600080fd5b600080fd5b600073ffffffffffffffffffffffffffffffffffffffff82169050919050565b6000610a11826109e6565b9050919050565b610a2181610a06565b8114610a2c57600080fd5b50565b600081359050610a3e81610a18565b92915050565b600060208284031215610a5a57610a596109dc565b5b6000610a6884828501610a2f565b91505092915050565b6000819050919050565b610a8481610a71565b82525050565b600081519050919050565b600082825260208201905092915050565b60005b83811015610ac4578082015181840152602081019050610aa9565b60008484015250505050565b6000601f19601f8301169050919050565b6000610aec82610a8a565b610af68185610a95565b9350610b06818560208601610aa6565b610b0f81610ad0565b840191505092915050565b610b2381610a06565b82525050565b600061010083016000830151610b426000860182610a7b565b5060208301518482036020860152610b5a8282610ae1565b9150506040830151610b6f6040860182610a7b565b5060608301518482036060860152610b878282610ae1565b91505060808301518482036080860152610ba18282610ae1565b91505060a0830151610bb660a0860182610b1a565b5060c0830151610bc960c0860182610a7b565b5060e083015184820360e0860152610be18282610ae1565b9150508091505092915050565b60006020820190508181036000830152610c088184610b29565b905092915050565b610c1981610a71565b82525050565b600082825260208201905092915050565b6000610c3b82610a8a565b610c458185610c1f565b9350610c55818560208601610aa6565b610c5e81610ad0565b840191505092915050565b610c7281610a06565b82525050565b600061010082019050610c8e600083018b610c10565b8181036020830152610ca0818a610c30565b9050610caf6040830189610c10565b8181036060830152610cc18188610c30565b90508181036080830152610cd58187610c30565b9050610ce460a0830186610c69565b610cf160c0830185610c10565b81810360e0830152610d038184610c30565b90509998505050505050505050565b600080fd5b600080fd5b7f4e487b7100000000000000000000000000000000000000000000000000000000600052604160045260246000fd5b610d5482610ad0565b810181811067ffffffffffffffff82111715610d7357610d72610d1c565b5b80604052505050565b6000610d866109d2565b9050610d928282610d4b565b919050565b600067ffffffffffffffff821115610db257610db1610d1c565b5b610dbb82610ad0565b9050602081019050919050565b82818337600083830152505050565b6000610dea610de584610d97565b610d7c565b905082815260208101848484011115610e0657610e05610d17565b5b610e11848285610dc8565b509392505050565b600082601f830112610e2e57610e2d610d12565b5b8135610e3e848260208601610dd7565b91505092915050565b610e5081610a71565b8114610e5b57600080fd5b50565b600081359050610e6d81610e47565b92915050565b600080600080600060a08688031215610e8f57610e8e6109dc565b5b600086013567ffffffffffffffff811115610ead57610eac6109e1565b5b610eb988828901610e19565b9550506020610eca88828901610e5e565b945050604086013567ffffffffffffffff811115610eeb57610eea6109e1565b5b610ef788828901610e19565b935050606086013567ffffffffffffffff811115610f1857610f176109e1565b5b610f2488828901610e19565b925050608086013567ffffffffffffffff811115610f4557610f446109e1565b5b610f5188828901610e19565b9150509295509295909350565b7f4e487b7100000000000000000000000000000000000000000000000000000000600052601160045260246000fd5b6000610f9882610a71565b91507fffffffffffffffffffffffffffffffffffffffffffffffffffffffffffffffff8203610fca57610fc9610f5e565b5b600182019050919050565b7f4e487b7100000000000000000000000000000000000000000000000000000000600052602260045260246000fd5b6000600282049050600182168061101c57607f821691505b60208210810361102f5761102e610fd5565b5b50919050565b7f5573657220416c72656164792072656769737465726564000000000000000000600082015250565b600061106b601783610c1f565b915061107682611035565b602082019050919050565b6000602082019050818103600083015261109a8161105e565b9050919050565b60008190508160005260206000209050919050565b60006020601f8301049050919050565b600082821b905092915050565b6000600883026111037fffffffffffffffffffffffffffffffffffffffffffffffffffffffffffffffff826110c6565b61110d86836110c6565b95508019841693508086168417925050509392505050565b6000819050919050565b600061114a61114561114084610a71565b611125565b610a71565b9050919050565b6000819050919050565b6111648361112f565b61117861117082611151565b8484546110d3565b825550505050565b600090565b61118d611180565b61119881848461115b565b505050565b5b818110156111bc576111b1600082611185565b60018101905061119e565b5050565b601f821115611201576111d2816110a1565b6111db846110b6565b810160208510156111ea578190505b6111fe6111f6856110b6565b83018261119d565b50505b505050565b600082821c905092915050565b600061122460001984600802611206565b1980831691505092915050565b600061123d8383611213565b9150826002028217905092915050565b61125682610a8a565b67ffffffffffffffff81111561126f5761126e610d1c565b5b6112798254611004565b6112848282856111c0565b600060209050601f8311600181146112b757600084156112a5578287015190505b6112af8582611231565b865550611317565b601f1984166112c5866110a1565b60005b828110156112ed578489015182556001820191506020850194506020810190506112c8565b8683101561130a5784890151611306601f891682611213565b8355505b6001600288020188555050505b505050505050565b600060208201905081810360008301526113398184610c30565b90509291505056fea2646970667358221220e93e6a32e2c3755a757bd0e6a31292e90571adf70cdb24cf56c55ab7d93d80ea64736f6c63430008180033",
  "linkReferences": {},
  "deployedLinkReferences": {}
}