{
  "_format": "hh-sol-artifact-1",
  "contractName": "LoanContract",
  "sourceName": "contracts/LoanContract.sol",
  "abi": [
    {
      "inputs": [
        {
          "internalType": "address",
          "name": "_userContractAddress",
          "type": "address"
        }
      ],
      "stateMutability": "nonpayable",
      "type": "constructor"
    },
    {
      "anonymous": false,
      "inputs": [
        {
          "indexed": false,
          "internalType": "uint256",
          "name": "loanId",
          "type": "uint256"
        },
        {
          "indexed": true,
          "internalType": "address",
          "name": "granter",
          "type": "address"
        }
      ],
      "name": "LoanApproved",
      "type": "event"
    },
    {
      "anonymous": false,
      "inputs": [
        {
          "indexed": false,
          "internalType": "uint256",
          "name": "loanId",
          "type": "uint256"
        },
        {
          "indexed": false,
          "internalType": "uint256",
          "name": "amountPaid",
          "type": "uint256"
        }
      ],
      "name": "LoanRepaid",
      "type": "event"
    },
    {
      "anonymous": false,
      "inputs": [
        {
          "indexed": false,
          "internalType": "uint256",
          "name": "loanId",
          "type": "uint256"
        },
        {
          "indexed": true,
          "internalType": "address",
          "name": "requester",
          "type": "address"
        }
      ],
      "name": "LoanRequested",
      "type": "event"
    },
    {
      "inputs": [
        {
          "internalType": "uint256",
          "name": "",
          "type": "uint256"
        }
      ],
      "name": "Loans",
      "outputs": [
        {
          "internalType": "uint256",
          "name": "loanId",
          "type": "uint256"
        },
        {
          "internalType": "uint256",
          "name": "amount",
          "type": "uint256"
        },
        {
          "internalType": "string",
          "name": "description",
          "type": "string"
        },
        {
          "internalType": "enum LoanContract.LoanType",
          "name": "typeOfLoan",
          "type": "uint8"
        },
        {
          "internalType": "enum LoanContract.Status",
          "name": "status",
          "type": "uint8"
        },
        {
          "internalType": "address",
          "name": "requester",
          "type": "address"
        },
        {
          "internalType": "address",
          "name": "granter",
          "type": "address"
        },
        {
          "internalType": "uint256",
          "name": "interest",
          "type": "uint256"
        },
        {
          "internalType": "uint256",
          "name": "dueDate",
          "type": "uint256"
        },
        {
          "internalType": "uint256",
          "name": "amountPaid",
          "type": "uint256"
        },
        {
          "internalType": "uint256",
          "name": "duration",
          "type": "uint256"
        }
      ],
      "stateMutability": "view",
      "type": "function"
    },
    {
      "inputs": [
        {
          "internalType": "address",
          "name": "",
          "type": "address"
        },
        {
          "internalType": "uint256",
          "name": "",
          "type": "uint256"
        }
      ],
      "name": "UserApprovedLoans",
      "outputs": [
        {
          "internalType": "uint256",
          "name": "loanId",
          "type": "uint256"
        },
        {
          "internalType": "uint256",
          "name": "amount",
          "type": "uint256"
        },
        {
          "internalType": "string",
          "name": "description",
          "type": "string"
        },
        {
          "internalType": "enum LoanContract.LoanType",
          "name": "typeOfLoan",
          "type": "uint8"
        },
        {
          "internalType": "enum LoanContract.Status",
          "name": "status",
          "type": "uint8"
        },
        {
          "internalType": "address",
          "name": "requester",
          "type": "address"
        },
        {
          "internalType": "address",
          "name": "granter",
          "type": "address"
        },
        {
          "internalType": "uint256",
          "name": "interest",
          "type": "uint256"
        },
        {
          "internalType": "uint256",
          "name": "dueDate",
          "type": "uint256"
        },
        {
          "internalType": "uint256",
          "name": "amountPaid",
          "type": "uint256"
        },
        {
          "internalType": "uint256",
          "name": "duration",
          "type": "uint256"
        }
      ],
      "stateMutability": "view",
      "type": "function"
    },
    {
      "inputs": [
        {
          "internalType": "address",
          "name": "",
          "type": "address"
        },
        {
          "internalType": "uint256",
          "name": "",
          "type": "uint256"
        }
      ],
      "name": "UserCommunityLoans",
      "outputs": [
        {
          "internalType": "uint256",
          "name": "loanId",
          "type": "uint256"
        },
        {
          "internalType": "uint256",
          "name": "amount",
          "type": "uint256"
        },
        {
          "internalType": "string",
          "name": "description",
          "type": "string"
        },
        {
          "internalType": "enum LoanContract.LoanType",
          "name": "typeOfLoan",
          "type": "uint8"
        },
        {
          "internalType": "enum LoanContract.Status",
          "name": "status",
          "type": "uint8"
        },
        {
          "internalType": "address",
          "name": "requester",
          "type": "address"
        },
        {
          "internalType": "address",
          "name": "granter",
          "type": "address"
        },
        {
          "internalType": "uint256",
          "name": "interest",
          "type": "uint256"
        },
        {
          "internalType": "uint256",
          "name": "dueDate",
          "type": "uint256"
        },
        {
          "internalType": "uint256",
          "name": "amountPaid",
          "type": "uint256"
        },
        {
          "internalType": "uint256",
          "name": "duration",
          "type": "uint256"
        }
      ],
      "stateMutability": "view",
      "type": "function"
    },
    {
      "inputs": [
        {
          "internalType": "address",
          "name": "",
          "type": "address"
        },
        {
          "internalType": "uint256",
          "name": "",
          "type": "uint256"
        }
      ],
      "name": "UserPaidLoans",
      "outputs": [
        {
          "internalType": "uint256",
          "name": "loanId",
          "type": "uint256"
        },
        {
          "internalType": "uint256",
          "name": "amount",
          "type": "uint256"
        },
        {
          "internalType": "string",
          "name": "description",
          "type": "string"
        },
        {
          "internalType": "enum LoanContract.LoanType",
          "name": "typeOfLoan",
          "type": "uint8"
        },
        {
          "internalType": "enum LoanContract.Status",
          "name": "status",
          "type": "uint8"
        },
        {
          "internalType": "address",
          "name": "requester",
          "type": "address"
        },
        {
          "internalType": "address",
          "name": "granter",
          "type": "address"
        },
        {
          "internalType": "uint256",
          "name": "interest",
          "type": "uint256"
        },
        {
          "internalType": "uint256",
          "name": "dueDate",
          "type": "uint256"
        },
        {
          "internalType": "uint256",
          "name": "amountPaid",
          "type": "uint256"
        },
        {
          "internalType": "uint256",
          "name": "duration",
          "type": "uint256"
        }
      ],
      "stateMutability": "view",
      "type": "function"
    },
    {
      "inputs": [
        {
          "internalType": "address",
          "name": "",
          "type": "address"
        },
        {
          "internalType": "uint256",
          "name": "",
          "type": "uint256"
        }
      ],
      "name": "UserRequestedLoans",
      "outputs": [
        {
          "internalType": "uint256",
          "name": "loanId",
          "type": "uint256"
        },
        {
          "internalType": "uint256",
          "name": "amount",
          "type": "uint256"
        },
        {
          "internalType": "string",
          "name": "description",
          "type": "string"
        },
        {
          "internalType": "enum LoanContract.LoanType",
          "name": "typeOfLoan",
          "type": "uint8"
        },
        {
          "internalType": "enum LoanContract.Status",
          "name": "status",
          "type": "uint8"
        },
        {
          "internalType": "address",
          "name": "requester",
          "type": "address"
        },
        {
          "internalType": "address",
          "name": "granter",
          "type": "address"
        },
        {
          "internalType": "uint256",
          "name": "interest",
          "type": "uint256"
        },
        {
          "internalType": "uint256",
          "name": "dueDate",
          "type": "uint256"
        },
        {
          "internalType": "uint256",
          "name": "amountPaid",
          "type": "uint256"
        },
        {
          "internalType": "uint256",
          "name": "duration",
          "type": "uint256"
        }
      ],
      "stateMutability": "view",
      "type": "function"
    },
    {
      "inputs": [
        {
          "internalType": "uint256",
          "name": "amount",
          "type": "uint256"
        },
        {
          "internalType": "uint256",
          "name": "interest",
          "type": "uint256"
        },
        {
          "internalType": "address payable",
          "name": "_community",
          "type": "address"
        }
      ],
      "name": "addCommunityLoan",
      "outputs": [],
      "stateMutability": "nonpayable",
      "type": "function"
    },
    {
      "inputs": [
        {
          "internalType": "uint256",
          "name": "_loanId",
          "type": "uint256"
        }
      ],
      "name": "addStrikeIfLate",
      "outputs": [],
      "stateMutability": "nonpayable",
      "type": "function"
    },
    {
      "inputs": [
        {
          "internalType": "uint256",
          "name": "_loanId",
          "type": "uint256"
        },
        {
          "internalType": "uint256",
          "name": "_interest",
          "type": "uint256"
        },
        {
          "internalType": "address",
          "name": "_granter",
          "type": "address"
        },
        {
          "internalType": "address[]",
          "name": "_bidderAddresses",
          "type": "address[]"
        }
      ],
      "name": "approveLoan",
      "outputs": [],
      "stateMutability": "payable",
      "type": "function"
    },
    {
      "inputs": [
        {
          "components": [
            {
              "internalType": "uint256",
              "name": "loanId",
              "type": "uint256"
            },
            {
              "internalType": "uint256",
              "name": "amount",
              "type": "uint256"
            },
            {
              "internalType": "string",
              "name": "description",
              "type": "string"
            },
            {
              "internalType": "enum LoanContract.LoanType",
              "name": "typeOfLoan",
              "type": "uint8"
            },
            {
              "internalType": "enum LoanContract.Status",
              "name": "status",
              "type": "uint8"
            },
            {
              "internalType": "address",
              "name": "requester",
              "type": "address"
            },
            {
              "internalType": "address",
              "name": "granter",
              "type": "address"
            },
            {
              "internalType": "uint256",
              "name": "interest",
              "type": "uint256"
            },
            {
              "internalType": "uint256",
              "name": "dueDate",
              "type": "uint256"
            },
            {
              "internalType": "uint256",
              "name": "amountPaid",
              "type": "uint256"
            },
            {
              "internalType": "uint256",
              "name": "duration",
              "type": "uint256"
            }
          ],
          "internalType": "struct LoanContract.LoanStruct",
          "name": "loan",
          "type": "tuple"
        }
      ],
      "name": "calculateAmountDueNextMonth",
      "outputs": [
        {
          "internalType": "uint256",
          "name": "",
          "type": "uint256"
        }
      ],
      "stateMutability": "pure",
      "type": "function"
    },
    {
      "inputs": [],
      "name": "deposit",
      "outputs": [],
      "stateMutability": "payable",
      "type": "function"
    },
    {
      "inputs": [],
      "name": "getAllLoans",
      "outputs": [
        {
          "components": [
            {
              "internalType": "uint256",
              "name": "loanId",
              "type": "uint256"
            },
            {
              "internalType": "uint256",
              "name": "amount",
              "type": "uint256"
            },
            {
              "internalType": "string",
              "name": "description",
              "type": "string"
            },
            {
              "internalType": "enum LoanContract.LoanType",
              "name": "typeOfLoan",
              "type": "uint8"
            },
            {
              "internalType": "enum LoanContract.Status",
              "name": "status",
              "type": "uint8"
            },
            {
              "internalType": "address",
              "name": "requester",
              "type": "address"
            },
            {
              "internalType": "address",
              "name": "granter",
              "type": "address"
            },
            {
              "internalType": "uint256",
              "name": "interest",
              "type": "uint256"
            },
            {
              "internalType": "uint256",
              "name": "dueDate",
              "type": "uint256"
            },
            {
              "internalType": "uint256",
              "name": "amountPaid",
              "type": "uint256"
            },
            {
              "internalType": "uint256",
              "name": "duration",
              "type": "uint256"
            }
          ],
          "internalType": "struct LoanContract.LoanStruct[]",
          "name": "",
          "type": "tuple[]"
        }
      ],
      "stateMutability": "view",
      "type": "function"
    },
    {
      "inputs": [
        {
          "internalType": "address",
          "name": "_user",
          "type": "address"
        }
      ],
      "name": "getUserApprovedLoans",
      "outputs": [
        {
          "components": [
            {
              "internalType": "uint256",
              "name": "loanId",
              "type": "uint256"
            },
            {
              "internalType": "uint256",
              "name": "amount",
              "type": "uint256"
            },
            {
              "internalType": "string",
              "name": "description",
              "type": "string"
            },
            {
              "internalType": "enum LoanContract.LoanType",
              "name": "typeOfLoan",
              "type": "uint8"
            },
            {
              "internalType": "enum LoanContract.Status",
              "name": "status",
              "type": "uint8"
            },
            {
              "internalType": "address",
              "name": "requester",
              "type": "address"
            },
            {
              "internalType": "address",
              "name": "granter",
              "type": "address"
            },
            {
              "internalType": "uint256",
              "name": "interest",
              "type": "uint256"
            },
            {
              "internalType": "uint256",
              "name": "dueDate",
              "type": "uint256"
            },
            {
              "internalType": "uint256",
              "name": "amountPaid",
              "type": "uint256"
            },
            {
              "internalType": "uint256",
              "name": "duration",
              "type": "uint256"
            }
          ],
          "internalType": "struct LoanContract.LoanStruct[]",
          "name": "",
          "type": "tuple[]"
        }
      ],
      "stateMutability": "view",
      "type": "function"
    },
    {
      "inputs": [
        {
          "internalType": "address",
          "name": "_user",
          "type": "address"
        }
      ],
      "name": "getUserPaidLoans",
      "outputs": [
        {
          "components": [
            {
              "internalType": "uint256",
              "name": "loanId",
              "type": "uint256"
            },
            {
              "internalType": "uint256",
              "name": "amount",
              "type": "uint256"
            },
            {
              "internalType": "string",
              "name": "description",
              "type": "string"
            },
            {
              "internalType": "enum LoanContract.LoanType",
              "name": "typeOfLoan",
              "type": "uint8"
            },
            {
              "internalType": "enum LoanContract.Status",
              "name": "status",
              "type": "uint8"
            },
            {
              "internalType": "address",
              "name": "requester",
              "type": "address"
            },
            {
              "internalType": "address",
              "name": "granter",
              "type": "address"
            },
            {
              "internalType": "uint256",
              "name": "interest",
              "type": "uint256"
            },
            {
              "internalType": "uint256",
              "name": "dueDate",
              "type": "uint256"
            },
            {
              "internalType": "uint256",
              "name": "amountPaid",
              "type": "uint256"
            },
            {
              "internalType": "uint256",
              "name": "duration",
              "type": "uint256"
            }
          ],
          "internalType": "struct LoanContract.LoanStruct[]",
          "name": "",
          "type": "tuple[]"
        }
      ],
      "stateMutability": "view",
      "type": "function"
    },
    {
      "inputs": [
        {
          "internalType": "address",
          "name": "_user",
          "type": "address"
        }
      ],
      "name": "getUserRequestedLoans",
      "outputs": [
        {
          "components": [
            {
              "internalType": "uint256",
              "name": "loanId",
              "type": "uint256"
            },
            {
              "internalType": "uint256",
              "name": "amount",
              "type": "uint256"
            },
            {
              "internalType": "string",
              "name": "description",
              "type": "string"
            },
            {
              "internalType": "enum LoanContract.LoanType",
              "name": "typeOfLoan",
              "type": "uint8"
            },
            {
              "internalType": "enum LoanContract.Status",
              "name": "status",
              "type": "uint8"
            },
            {
              "internalType": "address",
              "name": "requester",
              "type": "address"
            },
            {
              "internalType": "address",
              "name": "granter",
              "type": "address"
            },
            {
              "internalType": "uint256",
              "name": "interest",
              "type": "uint256"
            },
            {
              "internalType": "uint256",
              "name": "dueDate",
              "type": "uint256"
            },
            {
              "internalType": "uint256",
              "name": "amountPaid",
              "type": "uint256"
            },
            {
              "internalType": "uint256",
              "name": "duration",
              "type": "uint256"
            }
          ],
          "internalType": "struct LoanContract.LoanStruct[]",
          "name": "",
          "type": "tuple[]"
        }
      ],
      "stateMutability": "view",
      "type": "function"
    },
    {
      "inputs": [
        {
          "internalType": "uint256",
          "name": "_loanId",
          "type": "uint256"
        }
      ],
      "name": "repayLoan",
      "outputs": [],
      "stateMutability": "payable",
      "type": "function"
    },
    {
      "inputs": [
        {
          "internalType": "uint256",
          "name": "_amount",
          "type": "uint256"
        },
        {
          "internalType": "string",
          "name": "_description",
          "type": "string"
        },
        {
          "internalType": "enum LoanContract.LoanType",
          "name": "_type",
          "type": "uint8"
        },
        {
          "internalType": "uint256",
          "name": "_duration",
          "type": "uint256"
        }
      ],
      "name": "requestLoan",
      "outputs": [],
      "stateMutability": "nonpayable",
      "type": "function"
    }
  ],
  "bytecode": "0x6080604052600080553480156200001557600080fd5b50604051620047fa380380620047fa83398181016040528101906200003b9190620000ed565b80600160006101000a81548173ffffffffffffffffffffffffffffffffffffffff021916908373ffffffffffffffffffffffffffffffffffffffff160217905550506200011f565b600080fd5b600073ffffffffffffffffffffffffffffffffffffffff82169050919050565b6000620000b58262000088565b9050919050565b620000c781620000a8565b8114620000d357600080fd5b50565b600081519050620000e781620000bc565b92915050565b60006020828403121562000106576200010562000083565b5b60006200011684828501620000d6565b91505092915050565b6146cb806200012f6000396000f3fe6080604052600436106100f35760003560e01c8063a5bfd16a1161008a578063d0e30db011610059578063d0e30db014610380578063d129c54c1461038a578063d155c4a7146103c7578063e9a90a09146103f0576100f3565b8063a5bfd16a146102b5578063a7a1e064146102e0578063ab7b1c891461031d578063b9a6c65614610339576100f3565b806361f00927116100c657806361f00927146101c157806389b279e7146101fe5780638fbb56841461024557806398f4b4011461028c576100f3565b8063087c2b4a146100f85780630e8f5f1e1461012157806314bb68c31461013d5780634c56919c14610184575b600080fd5b34801561010457600080fd5b5061011f600480360381019061011a9190612ecb565b610437565b005b61013b600480360381019061013691906130af565b6105a6565b005b34801561014957600080fd5b50610164600480360381019061015f9190613132565b61112b565b60405161017b9b9a999897969594939291906132ce565b60405180910390f35b34801561019057600080fd5b506101ab60048036038101906101a69190613380565b611284565b6040516101b891906135e4565b60405180910390f35b3480156101cd57600080fd5b506101e860048036038101906101e39190613380565b611513565b6040516101f591906135e4565b60405180910390f35b34801561020a57600080fd5b5061022560048036038101906102209190612ecb565b6117a2565b60405161023c9b9a999897969594939291906132ce565b60405180910390f35b34801561025157600080fd5b5061026c60048036038101906102679190613132565b6118de565b6040516102839b9a999897969594939291906132ce565b60405180910390f35b34801561029857600080fd5b506102b360048036038101906102ae9190613644565b611a37565b005b3480156102c157600080fd5b506102ca611b53565b6040516102d791906135e4565b60405180910390f35b3480156102ec57600080fd5b50610307600480360381019061030291906138c8565b611dfd565b6040516103149190613911565b60405180910390f35b61033760048036038101906103329190612ecb565b611e66565b005b34801561034557600080fd5b50610360600480360381019061035b9190613132565b612248565b6040516103779b9a999897969594939291906132ce565b60405180910390f35b6103886123a1565b005b34801561039657600080fd5b506103b160048036038101906103ac9190613380565b6123a3565b6040516103be91906135e4565b60405180910390f35b3480156103d357600080fd5b506103ee60048036038101906103e9919061392c565b612632565b005b3480156103fc57600080fd5b5061041760048036038101906104129190613132565b612a99565b60405161042e9b9a999897969594939291906132ce565b60405180910390f35b60006002600083815260200190815260200160002090506001600381111561046257610461613200565b5b8160030160019054906101000a900460ff16600381111561048657610485613200565b5b146104c6576040517f08c379a00000000000000000000000000000000000000000000000000000000081526004016104bd906139fb565b60405180910390fd5b80600601544211156105a257600160009054906101000a900473ffffffffffffffffffffffffffffffffffffffff1673ffffffffffffffffffffffffffffffffffffffff16632bfd740f8260030160029054906101000a900473ffffffffffffffffffffffffffffffffffffffff166040518263ffffffff1660e01b81526004016105519190613a1b565b600060405180830381600087803b15801561056b57600080fd5b505af115801561057f573d6000803e3d6000fd5b5050505062278d0081600601600082825461059a9190613a65565b925050819055505b5050565b6000600260008681526020019081526020016000209050600060038111156105d1576105d0613200565b5b8160030160019054906101000a900460ff1660038111156105f5576105f4613200565b5b14610635576040517f08c379a000000000000000000000000000000000000000000000000000000000815260040161062c90613ae5565b60405180910390fd5b8060010154471161067b576040517f08c379a000000000000000000000000000000000000000000000000000000000815260040161067290613b51565b60405180910390fd5b60018160030160016101000a81548160ff021916908360038111156106a3576106a2613200565b5b0217905550828160040160006101000a81548173ffffffffffffffffffffffffffffffffffffffff021916908373ffffffffffffffffffffffffffffffffffffffff16021790555083816005018190555062278d00426107039190613a65565b816006018190555060008160030160029054906101000a900473ffffffffffffffffffffffffffffffffffffffff1673ffffffffffffffffffffffffffffffffffffffff16826001015460405161075990613ba2565b60006040518083038185875af1925050503d8060008114610796576040519150601f19603f3d011682016040523d82523d6000602084013e61079b565b606091505b5050905060005b83518110156108bd5760008482815181106107c0576107bf613bb7565b5b602002602001015190508573ffffffffffffffffffffffffffffffffffffffff168173ffffffffffffffffffffffffffffffffffffffff16146108af5760008173ffffffffffffffffffffffffffffffffffffffff16856001015460405161082790613ba2565b60006040518083038185875af1925050503d8060008114610864576040519150601f19603f3d011682016040523d82523d6000602084013e610869565b606091505b50509050806108ad576040517f08c379a00000000000000000000000000000000000000000000000000000000081526004016108a490613c32565b60405180910390fd5b505b5080806001019150506107a2565b50806108fe576040517f08c379a00000000000000000000000000000000000000000000000000000000081526004016108f590613c9e565b60405180910390fd5b600560008360030160029054906101000a900473ffffffffffffffffffffffffffffffffffffffff1673ffffffffffffffffffffffffffffffffffffffff1673ffffffffffffffffffffffffffffffffffffffff1681526020019081526020016000208290806001815401808255809150506001900390600052602060002090600902016000909190919091506000820154816000015560018201548160010155600282018160020190816109b39190613ee0565b506003820160009054906101000a900460ff168160030160006101000a81548160ff021916908360028111156109ec576109eb613200565b5b02179055506003820160019054906101000a900460ff168160030160016101000a81548160ff02191690836003811115610a2957610a28613200565b5b02179055506003820160029054906101000a900473ffffffffffffffffffffffffffffffffffffffff168160030160026101000a81548173ffffffffffffffffffffffffffffffffffffffff021916908373ffffffffffffffffffffffffffffffffffffffff1602179055506004820160009054906101000a900473ffffffffffffffffffffffffffffffffffffffff168160040160006101000a81548173ffffffffffffffffffffffffffffffffffffffff021916908373ffffffffffffffffffffffffffffffffffffffff160217905550600582015481600501556006820154816006015560078201548160070155600882015481600801555050600660008573ffffffffffffffffffffffffffffffffffffffff1673ffffffffffffffffffffffffffffffffffffffff168152602001908152602001600020829080600181540180825580915050600190039060005260206000209060090201600090919091909150600082015481600001556001820154816001015560028201816002019081610bb79190613ee0565b506003820160009054906101000a900460ff168160030160006101000a81548160ff02191690836002811115610bf057610bef613200565b5b02179055506003820160019054906101000a900460ff168160030160016101000a81548160ff02191690836003811115610c2d57610c2c613200565b5b02179055506003820160029054906101000a900473ffffffffffffffffffffffffffffffffffffffff168160030160026101000a81548173ffffffffffffffffffffffffffffffffffffffff021916908373ffffffffffffffffffffffffffffffffffffffff1602179055506004820160009054906101000a900473ffffffffffffffffffffffffffffffffffffffff168160040160006101000a81548173ffffffffffffffffffffffffffffffffffffffff021916908373ffffffffffffffffffffffffffffffffffffffff1602179055506005820154816005015560068201548160060155600782015481600701556008820154816008015550506000600360008460030160029054906101000a900473ffffffffffffffffffffffffffffffffffffffff1673ffffffffffffffffffffffffffffffffffffffff1673ffffffffffffffffffffffffffffffffffffffff168152602001908152602001600020905060005b81805490508110156110d35787828281548110610db457610db3613bb7565b5b906000526020600020906009020160000154036110c65760008190505b60018380549050610de29190613fc8565b811015610fe05782600182610df79190613a65565b81548110610e0857610e07613bb7565b5b9060005260206000209060090201838281548110610e2957610e28613bb7565b5b9060005260206000209060090201600082015481600001556001820154816001015560028201816002019081610e5f9190613ee0565b506003820160009054906101000a900460ff168160030160006101000a81548160ff02191690836002811115610e9857610e97613200565b5b02179055506003820160019054906101000a900460ff168160030160016101000a81548160ff02191690836003811115610ed557610ed4613200565b5b02179055506003820160029054906101000a900473ffffffffffffffffffffffffffffffffffffffff168160030160026101000a81548173ffffffffffffffffffffffffffffffffffffffff021916908373ffffffffffffffffffffffffffffffffffffffff1602179055506004820160009054906101000a900473ffffffffffffffffffffffffffffffffffffffff168160040160006101000a81548173ffffffffffffffffffffffffffffffffffffffff021916908373ffffffffffffffffffffffffffffffffffffffff160217905550600582015481600501556006820154816006015560078201548160070155600882015481600801559050508080600101915050610dd1565b5081805480610ff257610ff1613ffc565b5b600190038181906000526020600020906009020160008082016000905560018201600090556002820160006110279190612d7a565b6003820160006101000a81549060ff02191690556003820160016101000a81549060ff02191690556003820160026101000a81549073ffffffffffffffffffffffffffffffffffffffff02191690556004820160006101000a81549073ffffffffffffffffffffffffffffffffffffffff02191690556005820160009055600682016000905560078201600090556008820160009055505090556110d3565b8080600101915050610d94565b508473ffffffffffffffffffffffffffffffffffffffff167f8b6240997bc3af56f5a9aec0408b8286fb78fb0573f2ba96445be3918511cb938860405161111a9190613911565b60405180910390a250505050505050565b6005602052816000526040600020818154811061114757600080fd5b90600052602060002090600902016000915091505080600001549080600101549080600201805461117790613ced565b80601f01602080910402602001604051908101604052809291908181526020018280546111a390613ced565b80156111f05780601f106111c5576101008083540402835291602001916111f0565b820191906000526020600020905b8154815290600101906020018083116111d357829003601f168201915b5050505050908060030160009054906101000a900460ff16908060030160019054906101000a900460ff16908060030160029054906101000a900473ffffffffffffffffffffffffffffffffffffffff16908060040160009054906101000a900473ffffffffffffffffffffffffffffffffffffffff1690806005015490806006015490806007015490806008015490508b565b6060600560008373ffffffffffffffffffffffffffffffffffffffff1673ffffffffffffffffffffffffffffffffffffffff168152602001908152602001600020805480602002602001604051908101604052809291908181526020016000905b82821015611508578382906000526020600020906009020160405180610160016040529081600082015481526020016001820154815260200160028201805461132d90613ced565b80601f016020809104026020016040519081016040528092919081815260200182805461135990613ced565b80156113a65780601f1061137b576101008083540402835291602001916113a6565b820191906000526020600020905b81548152906001019060200180831161138957829003601f168201915b505050505081526020016003820160009054906101000a900460ff1660028111156113d4576113d3613200565b5b60028111156113e6576113e5613200565b5b81526020016003820160019054906101000a900460ff16600381111561140f5761140e613200565b5b600381111561142157611420613200565b5b81526020016003820160029054906101000a900473ffffffffffffffffffffffffffffffffffffffff1673ffffffffffffffffffffffffffffffffffffffff1673ffffffffffffffffffffffffffffffffffffffff1681526020016004820160009054906101000a900473ffffffffffffffffffffffffffffffffffffffff1673ffffffffffffffffffffffffffffffffffffffff1673ffffffffffffffffffffffffffffffffffffffff168152602001600582015481526020016006820154815260200160078201548152602001600882015481525050815260200190600101906112e5565b505050509050919050565b6060600360008373ffffffffffffffffffffffffffffffffffffffff1673ffffffffffffffffffffffffffffffffffffffff168152602001908152602001600020805480602002602001604051908101604052809291908181526020016000905b8282101561179757838290600052602060002090600902016040518061016001604052908160008201548152602001600182015481526020016002820180546115bc90613ced565b80601f01602080910402602001604051908101604052809291908181526020018280546115e890613ced565b80156116355780601f1061160a57610100808354040283529160200191611635565b820191906000526020600020905b81548152906001019060200180831161161857829003601f168201915b505050505081526020016003820160009054906101000a900460ff16600281111561166357611662613200565b5b600281111561167557611674613200565b5b81526020016003820160019054906101000a900460ff16600381111561169e5761169d613200565b5b60038111156116b0576116af613200565b5b81526020016003820160029054906101000a900473ffffffffffffffffffffffffffffffffffffffff1673ffffffffffffffffffffffffffffffffffffffff1673ffffffffffffffffffffffffffffffffffffffff1681526020016004820160009054906101000a900473ffffffffffffffffffffffffffffffffffffffff1673ffffffffffffffffffffffffffffffffffffffff1673ffffffffffffffffffffffffffffffffffffffff16815260200160058201548152602001600682015481526020016007820154815260200160088201548152505081526020019060010190611574565b505050509050919050565b60026020528060005260406000206000915090508060000154908060010154908060020180546117d190613ced565b80601f01602080910402602001604051908101604052809291908181526020018280546117fd90613ced565b801561184a5780601f1061181f5761010080835404028352916020019161184a565b820191906000526020600020905b81548152906001019060200180831161182d57829003601f168201915b5050505050908060030160009054906101000a900460ff16908060030160019054906101000a900460ff16908060030160029054906101000a900473ffffffffffffffffffffffffffffffffffffffff16908060040160009054906101000a900473ffffffffffffffffffffffffffffffffffffffff1690806005015490806006015490806007015490806008015490508b565b600360205281600052604060002081815481106118fa57600080fd5b90600052602060002090600902016000915091505080600001549080600101549080600201805461192a90613ced565b80601f016020809104026020016040519081016040528092919081815260200182805461195690613ced565b80156119a35780601f10611978576101008083540402835291602001916119a3565b820191906000526020600020905b81548152906001019060200180831161198657829003601f168201915b5050505050908060030160009054906101000a900460ff16908060030160019054906101000a900460ff16908060030160029054906101000a900473ffffffffffffffffffffffffffffffffffffffff16908060040160009054906101000a900473ffffffffffffffffffffffffffffffffffffffff1690806005015490806006015490806007015490806008015490508b565b600060026000805481526020019081526020016000209050338160030160026101000a81548173ffffffffffffffffffffffffffffffffffffffff021916908373ffffffffffffffffffffffffffffffffffffffff160217905550600054816000018190555083816001018190555082816005018190555060018160030160016101000a81548160ff02191690836003811115611ad757611ad6613200565b5b0217905550818160040160006101000a81548173ffffffffffffffffffffffffffffffffffffffff021916908373ffffffffffffffffffffffffffffffffffffffff16021790555062278d0042611b2e9190613a65565b8160060181905550600080815480929190611b489061402b565b919050555050505050565b60606000805467ffffffffffffffff811115611b7257611b71612f6c565b5b604051908082528060200260200182016040528015611bab57816020015b611b98612dba565b815260200190600190039081611b905790505b50905060005b600054811015611df55760026000828152602001908152602001600020604051806101600160405290816000820154815260200160018201548152602001600282018054611bfe90613ced565b80601f0160208091040260200160405190810160405280929190818152602001828054611c2a90613ced565b8015611c775780601f10611c4c57610100808354040283529160200191611c77565b820191906000526020600020905b815481529060010190602001808311611c5a57829003601f168201915b505050505081526020016003820160009054906101000a900460ff166002811115611ca557611ca4613200565b5b6002811115611cb757611cb6613200565b5b81526020016003820160019054906101000a900460ff166003811115611ce057611cdf613200565b5b6003811115611cf257611cf1613200565b5b81526020016003820160029054906101000a900473ffffffffffffffffffffffffffffffffffffffff1673ffffffffffffffffffffffffffffffffffffffff1673ffffffffffffffffffffffffffffffffffffffff1681526020016004820160009054906101000a900473ffffffffffffffffffffffffffffffffffffffff1673ffffffffffffffffffffffffffffffffffffffff1673ffffffffffffffffffffffffffffffffffffffff168152602001600582015481526020016006820154815260200160078201548152602001600882015481525050828281518110611ddd57611ddc613bb7565b5b60200260200101819052508080600101915050611bb1565b508091505090565b6000808261014001518360200151611e1591906140a2565b905060008361012001518460200151611e2e9190613fc8565b9050600060648560e0015183611e4491906140d3565b611e4e91906140a2565b90508083611e5c9190613a65565b9350505050919050565b60006002600083815260200190815260200160002090503373ffffffffffffffffffffffffffffffffffffffff168160030160029054906101000a900473ffffffffffffffffffffffffffffffffffffffff1673ffffffffffffffffffffffffffffffffffffffff1614611f0f576040517f08c379a0000000000000000000000000000000000000000000000000000000008152600401611f0690614187565b60405180910390fd5b60016003811115611f2357611f22613200565b5b8160030160019054906101000a900460ff166003811115611f4757611f46613200565b5b14611f87576040517f08c379a0000000000000000000000000000000000000000000000000000000008152600401611f7e906139fb565b60405180910390fd5b600062278d00826006015442611f9d9190613fc8565b611fa791906140a2565b905060008111611fec576040517f08c379a0000000000000000000000000000000000000000000000000000000008152600401611fe390614219565b60405180910390fd5b60006121f38360405180610160016040529081600082015481526020016001820154815260200160028201805461202290613ced565b80601f016020809104026020016040519081016040528092919081815260200182805461204e90613ced565b801561209b5780601f106120705761010080835404028352916020019161209b565b820191906000526020600020905b81548152906001019060200180831161207e57829003601f168201915b505050505081526020016003820160009054906101000a900460ff1660028111156120c9576120c8613200565b5b60028111156120db576120da613200565b5b81526020016003820160019054906101000a900460ff16600381111561210457612103613200565b5b600381111561211657612115613200565b5b81526020016003820160029054906101000a900473ffffffffffffffffffffffffffffffffffffffff1673ffffffffffffffffffffffffffffffffffffffff1673ffffffffffffffffffffffffffffffffffffffff1681526020016004820160009054906101000a900473ffffffffffffffffffffffffffffffffffffffff1673ffffffffffffffffffffffffffffffffffffffff1673ffffffffffffffffffffffffffffffffffffffff168152602001600582015481526020016006820154815260200160078201548152602001600882015481525050611dfd565b905080341015612238576040517f08c379a000000000000000000000000000000000000000000000000000000000815260040161222f90614285565b60405180910390fd5b6122428334612bf2565b50505050565b6006602052816000526040600020818154811061226457600080fd5b90600052602060002090600902016000915091505080600001549080600101549080600201805461229490613ced565b80601f01602080910402602001604051908101604052809291908181526020018280546122c090613ced565b801561230d5780601f106122e25761010080835404028352916020019161230d565b820191906000526020600020905b8154815290600101906020018083116122f057829003601f168201915b5050505050908060030160009054906101000a900460ff16908060030160019054906101000a900460ff16908060030160029054906101000a900473ffffffffffffffffffffffffffffffffffffffff16908060040160009054906101000a900473ffffffffffffffffffffffffffffffffffffffff1690806005015490806006015490806007015490806008015490508b565b565b6060600660008373ffffffffffffffffffffffffffffffffffffffff1673ffffffffffffffffffffffffffffffffffffffff168152602001908152602001600020805480602002602001604051908101604052809291908181526020016000905b82821015612627578382906000526020600020906009020160405180610160016040529081600082015481526020016001820154815260200160028201805461244c90613ced565b80601f016020809104026020016040519081016040528092919081815260200182805461247890613ced565b80156124c55780601f1061249a576101008083540402835291602001916124c5565b820191906000526020600020905b8154815290600101906020018083116124a857829003601f168201915b505050505081526020016003820160009054906101000a900460ff1660028111156124f3576124f2613200565b5b600281111561250557612504613200565b5b81526020016003820160019054906101000a900460ff16600381111561252e5761252d613200565b5b60038111156125405761253f613200565b5b81526020016003820160029054906101000a900473ffffffffffffffffffffffffffffffffffffffff1673ffffffffffffffffffffffffffffffffffffffff1673ffffffffffffffffffffffffffffffffffffffff1681526020016004820160009054906101000a900473ffffffffffffffffffffffffffffffffffffffff1673ffffffffffffffffffffffffffffffffffffffff1673ffffffffffffffffffffffffffffffffffffffff16815260200160058201548152602001600682015481526020016007820154815260200160088201548152505081526020019060010190612404565b505050509050919050565b3373ffffffffffffffffffffffffffffffffffffffff16600160009054906101000a900473ffffffffffffffffffffffffffffffffffffffff1673ffffffffffffffffffffffffffffffffffffffff16636f77926b336040518263ffffffff1660e01b81526004016126a49190613a1b565b600060405180830381865afa1580156126c1573d6000803e3d6000fd5b505050506040513d6000823e3d601f19601f820116820180604052508101906126ea9190614479565b60a0015173ffffffffffffffffffffffffffffffffffffffff1614612744576040517f08c379a000000000000000000000000000000000000000000000000000000000815260040161273b9061450e565b60405180910390fd5b600060026000805481526020019081526020016000209050600054816000018190555084816001018190555083816002019081612781919061452e565b50828160030160006101000a81548160ff021916908360028111156127a9576127a8613200565b5b021790555060008160030160016101000a81548160ff021916908360038111156127d6576127d5613200565b5b0217905550338160030160026101000a81548173ffffffffffffffffffffffffffffffffffffffff021916908373ffffffffffffffffffffffffffffffffffffffff160217905550818160080181905550600360003373ffffffffffffffffffffffffffffffffffffffff1673ffffffffffffffffffffffffffffffffffffffff1681526020019081526020016000208190806001815401808255809150506001900390600052602060002090600902016000909190919091506000820154816000015560018201548160010155600282018160020190816128b89190613ee0565b506003820160009054906101000a900460ff168160030160006101000a81548160ff021916908360028111156128f1576128f0613200565b5b02179055506003820160019054906101000a900460ff168160030160016101000a81548160ff0219169083600381111561292e5761292d613200565b5b02179055506003820160029054906101000a900473ffffffffffffffffffffffffffffffffffffffff168160030160026101000a81548173ffffffffffffffffffffffffffffffffffffffff021916908373ffffffffffffffffffffffffffffffffffffffff1602179055506004820160009054906101000a900473ffffffffffffffffffffffffffffffffffffffff168160040160006101000a81548173ffffffffffffffffffffffffffffffffffffffff021916908373ffffffffffffffffffffffffffffffffffffffff1602179055506005820154816005015560068201548160060155600782015481600701556008820154816008015550503373ffffffffffffffffffffffffffffffffffffffff167fb7401c74d1dadd9b1c5778044555b38bcde050d7371b0e27212cfe1c418febcd600054604051612a739190613911565b60405180910390a2600080815480929190612a8d9061402b565b91905055505050505050565b60046020528160005260406000208181548110612ab557600080fd5b906000526020600020906009020160009150915050806000015490806001015490806002018054612ae590613ced565b80601f0160208091040260200160405190810160405280929190818152602001828054612b1190613ced565b8015612b5e5780601f10612b3357610100808354040283529160200191612b5e565b820191906000526020600020905b815481529060010190602001808311612b4157829003601f168201915b5050505050908060030160009054906101000a900460ff16908060030160019054906101000a900460ff16908060030160029054906101000a900473ffffffffffffffffffffffffffffffffffffffff16908060040160009054906101000a900473ffffffffffffffffffffffffffffffffffffffff1690806005015490806006015490806007015490806008015490508b565b60008260040160009054906101000a900473ffffffffffffffffffffffffffffffffffffffff1673ffffffffffffffffffffffffffffffffffffffff1682604051612c3c90613ba2565b60006040518083038185875af1925050503d8060008114612c79576040519150601f19603f3d011682016040523d82523d6000602084013e612c7e565b606091505b5050905080612cc2576040517f08c379a0000000000000000000000000000000000000000000000000000000008152600401612cb99061464c565b60405180910390fd5b81836007016000828254612cd69190613a65565b925050819055508260010154836007015410612d1a5760028360030160016101000a81548160ff02191690836003811115612d1457612d13613200565b5b02179055505b62278d00836006016000828254612d319190613a65565b925050819055507f040cee90ee4799897c30ca04e5feb6fa43dbba9b6d084b4b257cdafd84ba013e836000015483604051612d6d92919061466c565b60405180910390a1505050565b508054612d8690613ced565b6000825580601f10612d985750612db7565b601f016020900490600052602060002090810190612db69190612e64565b5b50565b60405180610160016040528060008152602001600081526020016060815260200160006002811115612def57612dee613200565b5b815260200160006003811115612e0857612e07613200565b5b8152602001600073ffffffffffffffffffffffffffffffffffffffff168152602001600073ffffffffffffffffffffffffffffffffffffffff168152602001600081526020016000815260200160008152602001600081525090565b5b80821115612e7d576000816000905550600101612e65565b5090565b6000604051905090565b600080fd5b600080fd5b6000819050919050565b612ea881612e95565b8114612eb357600080fd5b50565b600081359050612ec581612e9f565b92915050565b600060208284031215612ee157612ee0612e8b565b5b6000612eef84828501612eb6565b91505092915050565b600073ffffffffffffffffffffffffffffffffffffffff82169050919050565b6000612f2382612ef8565b9050919050565b612f3381612f18565b8114612f3e57600080fd5b50565b600081359050612f5081612f2a565b92915050565b600080fd5b6000601f19601f8301169050919050565b7f4e487b7100000000000000000000000000000000000000000000000000000000600052604160045260246000fd5b612fa482612f5b565b810181811067ffffffffffffffff82111715612fc357612fc2612f6c565b5b80604052505050565b6000612fd6612e81565b9050612fe28282612f9b565b919050565b600067ffffffffffffffff82111561300257613001612f6c565b5b602082029050602081019050919050565b600080fd5b600061302b61302684612fe7565b612fcc565b9050808382526020820190506020840283018581111561304e5761304d613013565b5b835b8181101561307757806130638882612f41565b845260208401935050602081019050613050565b5050509392505050565b600082601f83011261309657613095612f56565b5b81356130a6848260208601613018565b91505092915050565b600080600080608085870312156130c9576130c8612e8b565b5b60006130d787828801612eb6565b94505060206130e887828801612eb6565b93505060406130f987828801612f41565b925050606085013567ffffffffffffffff81111561311a57613119612e90565b5b61312687828801613081565b91505092959194509250565b6000806040838503121561314957613148612e8b565b5b600061315785828601612f41565b925050602061316885828601612eb6565b9150509250929050565b61317b81612e95565b82525050565b600081519050919050565b600082825260208201905092915050565b60005b838110156131bb5780820151818401526020810190506131a0565b60008484015250505050565b60006131d282613181565b6131dc818561318c565b93506131ec81856020860161319d565b6131f581612f5b565b840191505092915050565b7f4e487b7100000000000000000000000000000000000000000000000000000000600052602160045260246000fd5b600381106132405761323f613200565b5b50565b60008190506132518261322f565b919050565b600061326182613243565b9050919050565b61327181613256565b82525050565b6004811061328857613287613200565b5b50565b600081905061329982613277565b919050565b60006132a98261328b565b9050919050565b6132b98161329e565b82525050565b6132c881612f18565b82525050565b6000610160820190506132e4600083018e613172565b6132f1602083018d613172565b8181036040830152613303818c6131c7565b9050613312606083018b613268565b61331f608083018a6132b0565b61332c60a08301896132bf565b61333960c08301886132bf565b61334660e0830187613172565b613354610100830186613172565b613362610120830185613172565b613370610140830184613172565b9c9b505050505050505050505050565b60006020828403121561339657613395612e8b565b5b60006133a484828501612f41565b91505092915050565b600081519050919050565b600082825260208201905092915050565b6000819050602082019050919050565b6133e281612e95565b82525050565b600082825260208201905092915050565b600061340482613181565b61340e81856133e8565b935061341e81856020860161319d565b61342781612f5b565b840191505092915050565b61343b81613256565b82525050565b61344a8161329e565b82525050565b61345981612f18565b82525050565b60006101608301600083015161347860008601826133d9565b50602083015161348b60208601826133d9565b50604083015184820360408601526134a382826133f9565b91505060608301516134b86060860182613432565b5060808301516134cb6080860182613441565b5060a08301516134de60a0860182613450565b5060c08301516134f160c0860182613450565b5060e083015161350460e08601826133d9565b506101008301516135196101008601826133d9565b5061012083015161352e6101208601826133d9565b506101408301516135436101408601826133d9565b508091505092915050565b600061355a838361345f565b905092915050565b6000602082019050919050565b600061357a826133ad565b61358481856133b8565b935083602082028501613596856133c9565b8060005b858110156135d257848403895281516135b3858261354e565b94506135be83613562565b925060208a0199505060018101905061359a565b50829750879550505050505092915050565b600060208201905081810360008301526135fe818461356f565b905092915050565b600061361182612ef8565b9050919050565b61362181613606565b811461362c57600080fd5b50565b60008135905061363e81613618565b92915050565b60008060006060848603121561365d5761365c612e8b565b5b600061366b86828701612eb6565b935050602061367c86828701612eb6565b925050604061368d8682870161362f565b9150509250925092565b600080fd5b600080fd5b600080fd5b600067ffffffffffffffff8211156136c1576136c0612f6c565b5b6136ca82612f5b565b9050602081019050919050565b82818337600083830152505050565b60006136f96136f4846136a6565b612fcc565b905082815260208101848484011115613715576137146136a1565b5b6137208482856136d7565b509392505050565b600082601f83011261373d5761373c612f56565b5b813561374d8482602086016136e6565b91505092915050565b6003811061376357600080fd5b50565b60008135905061377581613756565b92915050565b6004811061378857600080fd5b50565b60008135905061379a8161377b565b92915050565b600061016082840312156137b7576137b6613697565b5b6137c2610160612fcc565b905060006137d284828501612eb6565b60008301525060206137e684828501612eb6565b602083015250604082013567ffffffffffffffff81111561380a5761380961369c565b5b61381684828501613728565b604083015250606061382a84828501613766565b606083015250608061383e8482850161378b565b60808301525060a061385284828501612f41565b60a08301525060c061386684828501612f41565b60c08301525060e061387a84828501612eb6565b60e08301525061010061388f84828501612eb6565b610100830152506101206138a584828501612eb6565b610120830152506101406138bb84828501612eb6565b6101408301525092915050565b6000602082840312156138de576138dd612e8b565b5b600082013567ffffffffffffffff8111156138fc576138fb612e90565b5b613908848285016137a0565b91505092915050565b60006020820190506139266000830184613172565b92915050565b6000806000806080858703121561394657613945612e8b565b5b600061395487828801612eb6565b945050602085013567ffffffffffffffff81111561397557613974612e90565b5b61398187828801613728565b935050604061399287828801613766565b92505060606139a387828801612eb6565b91505092959194509250565b7f4c6f616e206973206e6f74206163746976650000000000000000000000000000600082015250565b60006139e560128361318c565b91506139f0826139af565b602082019050919050565b60006020820190508181036000830152613a14816139d8565b9050919050565b6000602082019050613a3060008301846132bf565b92915050565b7f4e487b7100000000000000000000000000000000000000000000000000000000600052601160045260246000fd5b6000613a7082612e95565b9150613a7b83612e95565b9250828201905080821115613a9357613a92613a36565b5b92915050565b7f4c6f616e206973206e6f742070656e64696e6700000000000000000000000000600082015250565b6000613acf60138361318c565b9150613ada82613a99565b602082019050919050565b60006020820190508181036000830152613afe81613ac2565b9050919050565b7f496e73756666696369656e742062616c616e6365000000000000000000000000600082015250565b6000613b3b60148361318c565b9150613b4682613b05565b602082019050919050565b60006020820190508181036000830152613b6a81613b2e565b9050919050565b600081905092915050565b50565b6000613b8c600083613b71565b9150613b9782613b7c565b600082019050919050565b6000613bad82613b7f565b9150819050919050565b7f4e487b7100000000000000000000000000000000000000000000000000000000600052603260045260246000fd5b7f526566756e6420746f20626964646572206661696c6564000000000000000000600082015250565b6000613c1c60178361318c565b9150613c2782613be6565b602082019050919050565b60006020820190508181036000830152613c4b81613c0f565b9050919050565b7f5061796d656e74204661696c6564000000000000000000000000000000000000600082015250565b6000613c88600e8361318c565b9150613c9382613c52565b602082019050919050565b60006020820190508181036000830152613cb781613c7b565b9050919050565b7f4e487b7100000000000000000000000000000000000000000000000000000000600052602260045260246000fd5b60006002820490506001821680613d0557607f821691505b602082108103613d1857613d17613cbe565b5b50919050565b600081549050613d2d81613ced565b9050919050565b60008190508160005260206000209050919050565b60006020601f8301049050919050565b600082821b905092915050565b600060088302613d967fffffffffffffffffffffffffffffffffffffffffffffffffffffffffffffffff82613d59565b613da08683613d59565b95508019841693508086168417925050509392505050565b6000819050919050565b6000613ddd613dd8613dd384612e95565b613db8565b612e95565b9050919050565b6000819050919050565b613df783613dc2565b613e0b613e0382613de4565b848454613d66565b825550505050565b600090565b613e20613e13565b613e2b818484613dee565b505050565b5b81811015613e4f57613e44600082613e18565b600181019050613e31565b5050565b601f821115613e9457613e6581613d34565b613e6e84613d49565b81016020851015613e7d578190505b613e91613e8985613d49565b830182613e30565b50505b505050565b600082821c905092915050565b6000613eb760001984600802613e99565b1980831691505092915050565b6000613ed08383613ea6565b9150826002028217905092915050565b818103613eee575050613fc6565b613ef782613d1e565b67ffffffffffffffff811115613f1057613f0f612f6c565b5b613f1a8254613ced565b613f25828285613e53565b6000601f831160018114613f545760008415613f42578287015490505b613f4c8582613ec4565b865550613fbf565b601f198416613f6287613d34565b9650613f6d86613d34565b60005b82811015613f9557848901548255600182019150600185019450602081019050613f70565b86831015613fb25784890154613fae601f891682613ea6565b8355505b6001600288020188555050505b5050505050505b565b6000613fd382612e95565b9150613fde83612e95565b9250828203905081811115613ff657613ff5613a36565b5b92915050565b7f4e487b7100000000000000000000000000000000000000000000000000000000600052603160045260246000fd5b600061403682612e95565b91507fffffffffffffffffffffffffffffffffffffffffffffffffffffffffffffffff820361406857614067613a36565b5b600182019050919050565b7f4e487b7100000000000000000000000000000000000000000000000000000000600052601260045260246000fd5b60006140ad82612e95565b91506140b883612e95565b9250826140c8576140c7614073565b5b828204905092915050565b60006140de82612e95565b91506140e983612e95565b92508282026140f781612e95565b9150828204841483151761410e5761410d613a36565b5b5092915050565b7f596f7520617265206e6f742074686520726571756573746572206f662074686960008201527f73206c6f616e0000000000000000000000000000000000000000000000000000602082015250565b600061417160268361318c565b915061417c82614115565b604082019050919050565b600060208201905081810360008301526141a081614164565b9050919050565b7f52657061796d656e742063616e206f6e6c79206265206d616465206f6e63652060008201527f61206d6f6e746800000000000000000000000000000000000000000000000000602082015250565b600061420360278361318c565b915061420e826141a7565b604082019050919050565b60006020820190508181036000830152614232816141f6565b9050919050565b7f496e636f72726563742072657061796d656e7420616d6f756e74000000000000600082015250565b600061426f601a8361318c565b915061427a82614239565b602082019050919050565b6000602082019050818103600083015261429e81614262565b9050919050565b6000815190506142b481612e9f565b92915050565b60006142cd6142c8846136a6565b612fcc565b9050828152602081018484840111156142e9576142e86136a1565b5b6142f484828561319d565b509392505050565b600082601f83011261431157614310612f56565b5b81516143218482602086016142ba565b91505092915050565b60008151905061433981612f2a565b92915050565b6000610100828403121561435657614355613697565b5b614361610100612fcc565b90506000614371848285016142a5565b600083015250602082015167ffffffffffffffff8111156143955761439461369c565b5b6143a1848285016142fc565b60208301525060406143b5848285016142a5565b604083015250606082015167ffffffffffffffff8111156143d9576143d861369c565b5b6143e5848285016142fc565b606083015250608082015167ffffffffffffffff8111156144095761440861369c565b5b614415848285016142fc565b60808301525060a06144298482850161432a565b60a08301525060c061443d848285016142a5565b60c08301525060e082015167ffffffffffffffff8111156144615761446061369c565b5b61446d848285016142fc565b60e08301525092915050565b60006020828403121561448f5761448e612e8b565b5b600082015167ffffffffffffffff8111156144ad576144ac612e90565b5b6144b98482850161433f565b91505092915050565b7f55736572206e6f74207265676973746572656400000000000000000000000000600082015250565b60006144f860138361318c565b9150614503826144c2565b602082019050919050565b60006020820190508181036000830152614527816144eb565b9050919050565b61453782613181565b67ffffffffffffffff8111156145505761454f612f6c565b5b61455a8254613ced565b614565828285613e53565b600060209050601f8311600181146145985760008415614586578287015190505b6145908582613ec4565b8655506145f8565b601f1984166145a686613d34565b60005b828110156145ce578489015182556001820191506020850194506020810190506145a9565b868310156145eb57848901516145e7601f891682613ea6565b8355505b6001600288020188555050505b505050505050565b7f5061796d656e74206661696c6564000000000000000000000000000000000000600082015250565b6000614636600e8361318c565b915061464182614600565b602082019050919050565b6000602082019050818103600083015261466581614629565b9050919050565b60006040820190506146816000830185613172565b61468e6020830184613172565b939250505056fea264697066735822122022e7960e7ca3751ed7f54e53aeb4660c2365d2674e46d132648592d11dc35f1964736f6c63430008180033",
  "linkReferences": {},
  "deployedLinkReferences": {}
}