{
  "_format": "hh-sol-artifact-1",
  "contractName": "Community",
  "sourceName": "contracts/Community.sol",
  "abi": [
    {
      "inputs": [],
      "name": "InvalidInitialization",
      "type": "error"
    },
    {
      "inputs": [],
      "name": "NotInitializing",
      "type": "error"
    },
    {
      "anonymous": false,
      "inputs": [
        {
          "indexed": false,
          "internalType": "uint64",
          "name": "version",
          "type": "uint64"
        }
      ],
      "name": "Initialized",
      "type": "event"
    },
    {
      "anonymous": false,
      "inputs": [
        {
          "indexed": false,
          "internalType": "uint256",
          "name": "amount",
          "type": "uint256"
        }
      ],
      "name": "ReceivedEth",
      "type": "event"
    },
    {
      "anonymous": false,
      "inputs": [
        {
          "indexed": false,
          "internalType": "uint256",
          "name": "transactionId",
          "type": "uint256"
        },
        {
          "indexed": false,
          "internalType": "address",
          "name": "executer",
          "type": "address"
        }
      ],
      "name": "TransactionExecuted",
      "type": "event"
    },
    {
      "stateMutability": "payable",
      "type": "fallback"
    },
    {
      "inputs": [
        {
          "internalType": "address",
          "name": "newContract",
          "type": "address"
        }
      ],
      "name": "changeLoanContract",
      "outputs": [],
      "stateMutability": "nonpayable",
      "type": "function"
    },
    {
      "inputs": [
        {
          "internalType": "address payable",
          "name": "to",
          "type": "address"
        },
        {
          "internalType": "uint256",
          "name": "value",
          "type": "uint256"
        },
        {
          "internalType": "bytes[]",
          "name": "signatures",
          "type": "bytes[]"
        }
      ],
      "name": "executeTransaction",
      "outputs": [],
      "stateMutability": "nonpayable",
      "type": "function"
    },
    {
      "inputs": [],
      "name": "fundme",
      "outputs": [],
      "stateMutability": "payable",
      "type": "function"
    },
    {
      "inputs": [],
      "name": "getFixedInterestRate",
      "outputs": [
        {
          "internalType": "uint256",
          "name": "",
          "type": "uint256"
        }
      ],
      "stateMutability": "view",
      "type": "function"
    },
    {
      "inputs": [
        {
          "internalType": "address",
          "name": "_to",
          "type": "address"
        },
        {
          "internalType": "uint256",
          "name": "_amount",
          "type": "uint256"
        },
        {
          "internalType": "string",
          "name": "_message",
          "type": "string"
        }
      ],
      "name": "getMessageHash",
      "outputs": [
        {
          "internalType": "bytes32",
          "name": "",
          "type": "bytes32"
        }
      ],
      "stateMutability": "pure",
      "type": "function"
    },
    {
      "inputs": [],
      "name": "getOwners",
      "outputs": [
        {
          "internalType": "address[]",
          "name": "",
          "type": "address[]"
        }
      ],
      "stateMutability": "view",
      "type": "function"
    },
    {
      "inputs": [],
      "name": "getRequiredSignatures",
      "outputs": [
        {
          "internalType": "uint256",
          "name": "",
          "type": "uint256"
        }
      ],
      "stateMutability": "view",
      "type": "function"
    },
    {
      "inputs": [
        {
          "internalType": "address[]",
          "name": "owners",
          "type": "address[]"
        },
        {
          "internalType": "uint256",
          "name": "requiredSignatures",
          "type": "uint256"
        },
        {
          "internalType": "string",
          "name": "_name",
          "type": "string"
        },
        {
          "internalType": "uint256",
          "name": "_fixedInterest",
          "type": "uint256"
        },
        {
          "internalType": "address",
          "name": "_loan",
          "type": "address"
        }
      ],
      "name": "initialize",
      "outputs": [],
      "stateMutability": "nonpayable",
      "type": "function"
    },
    {
      "inputs": [
        {
          "internalType": "address",
          "name": "account",
          "type": "address"
        }
      ],
      "name": "isOwner",
      "outputs": [
        {
          "internalType": "bool",
          "name": "",
          "type": "bool"
        }
      ],
      "stateMutability": "view",
      "type": "function"
    },
    {
      "inputs": [],
      "name": "loan",
      "outputs": [
        {
          "internalType": "contract LoanContract",
          "name": "",
          "type": "address"
        }
      ],
      "stateMutability": "view",
      "type": "function"
    },
    {
      "inputs": [
        {
          "internalType": "address[]",
          "name": "newOwners",
          "type": "address[]"
        },
        {
          "internalType": "uint256",
          "name": "requiredSignatures",
          "type": "uint256"
        }
      ],
      "name": "updateOwners",
      "outputs": [],
      "stateMutability": "nonpayable",
      "type": "function"
    },
    {
      "stateMutability": "payable",
      "type": "receive"
    }
  ],
  "bytecode": "0x608060405234801561001057600080fd5b50611c56806100206000396000f3fe6080604052600436106100a05760003560e01c80636b7f5274116100645780636b7f52741461019c578063a0e67e2b146101c5578063c6437286146101f0578063ccd939981461022d578063d1d9165d14610258578063d285b7b414610262576100af565b806301910820146100b95780630b322f1b146100e25780632bdd006c1461010d5780632f54bf6e14610136578063360da00514610173576100af565b366100af576100ad61028d565b005b6100b761028d565b005b3480156100c557600080fd5b506100e060048036038101906100db9190610eab565b6102c6565b005b3480156100ee57600080fd5b506100f76104ab565b6040516101049190610f29565b60405180910390f35b34801561011957600080fd5b50610134600480360381019061012f9190611045565b6104b5565b005b34801561014257600080fd5b5061015d600480360381019061015891906110a1565b6105b3565b60405161016a91906110e9565b60405180910390f35b34801561017f57600080fd5b5061019a600480360381019061019591906110a1565b61065b565b005b3480156101a857600080fd5b506101c360048036038101906101be91906111a5565b61069f565b005b3480156101d157600080fd5b506101da61097b565b6040516101e79190611316565b60405180910390f35b3480156101fc57600080fd5b5061021760048036038101906102129190611338565b610a09565b60405161022491906113c0565b60405180910390f35b34801561023957600080fd5b50610242610a3f565b60405161024f9190610f29565b60405180910390f35b61026061028d565b005b34801561026e57600080fd5b50610277610a48565b604051610284919061143a565b60405180910390f35b7feac3bc00eb8bc276e61d902ebf696db93b7ee1cf44f1b16d6da1111427825e9e346040516102bc9190610f29565b60405180910390a1565b8147101580156102d65750600082115b610315576040517f08c379a000000000000000000000000000000000000000000000000000000000815260040161030c906114b2565b60405180910390fd5b600081519050610323610a3f565b811015610365576040517f08c379a000000000000000000000000000000000000000000000000000000000815260040161035c9061151e565b60405180910390fd5b60008473ffffffffffffffffffffffffffffffffffffffff168460405161038b9061156f565b60006040518083038185875af1925050503d80600081146103c8576040519150601f19603f3d011682016040523d82523d6000602084013e6103cd565b606091505b50509050600460009054906101000a900473ffffffffffffffffffffffffffffffffffffffff1673ffffffffffffffffffffffffffffffffffffffff166398f4b40185600354306040518463ffffffff1660e01b815260040161043293929190611593565b600060405180830381600087803b15801561044c57600080fd5b505af1158015610460573d6000803e3d6000fd5b50505050806104a4576040517f08c379a000000000000000000000000000000000000000000000000000000000815260040161049b90611616565b60405180910390fd5b5050505050565b6000600354905090565b60008251116104f9576040517f08c379a00000000000000000000000000000000000000000000000000000000081526004016104f090611682565b60405180910390fd5b60008111801561050a575081518111155b610549576040517f08c379a000000000000000000000000000000000000000000000000000000000815260040161054090611714565b60405180910390fd5b61055282610a6e565b610591576040517f08c379a000000000000000000000000000000000000000000000000000000000815260040161058890611780565b60405180910390fd5b81600190805190602001906105a7929190610b30565b50806000819055505050565b600080600090505b600180549050811015610650578273ffffffffffffffffffffffffffffffffffffffff16600182815481106105f3576105f26117a0565b5b9060005260206000200160009054906101000a900473ffffffffffffffffffffffffffffffffffffffff1673ffffffffffffffffffffffffffffffffffffffff1603610643576001915050610656565b80806001019150506105bb565b50600090505b919050565b80600460006101000a81548173ffffffffffffffffffffffffffffffffffffffff021916908373ffffffffffffffffffffffffffffffffffffffff16021790555050565b60006106a9610b08565b905060008160000160089054906101000a900460ff1615905060008260000160009054906101000a900467ffffffffffffffff1690506000808267ffffffffffffffff161480156106f75750825b9050600060018367ffffffffffffffff1614801561072c575060003073ffffffffffffffffffffffffffffffffffffffff163b145b90508115801561073a575080155b15610771576040517ff92ee8a900000000000000000000000000000000000000000000000000000000815260040160405180910390fd5b60018560000160006101000a81548167ffffffffffffffff021916908367ffffffffffffffff16021790555083156107c15760018560000160086101000a81548160ff0219169083151502179055505b60008a5111610805576040517f08c379a00000000000000000000000000000000000000000000000000000000081526004016107fc90611682565b60405180910390fd5b600089118015610816575089518911155b610855576040517f08c379a000000000000000000000000000000000000000000000000000000000815260040161084c90611714565b60405180910390fd5b61085e8a610a6e565b61089d576040517f08c379a000000000000000000000000000000000000000000000000000000000815260040161089490611780565b60405180910390fd5b89600190805190602001906108b3929190610b30565b508860008190555087600290816108ca91906119dc565b508660038190555085600460006101000a81548173ffffffffffffffffffffffffffffffffffffffff021916908373ffffffffffffffffffffffffffffffffffffffff160217905550831561096f5760008560000160086101000a81548160ff0219169083151502179055507fc7f505b2f371ae2175ee4913f4499e1f2633a7b5936321eed1cdaeb6115181d260016040516109669190611afd565b60405180910390a15b50505050505050505050565b606060018054806020026020016040519081016040528092919081815260200182805480156109ff57602002820191906000526020600020905b8160009054906101000a900473ffffffffffffffffffffffffffffffffffffffff1673ffffffffffffffffffffffffffffffffffffffff16815260200190600101908083116109b5575b5050505050905090565b6000838383604051602001610a2093929190611be7565b6040516020818303038152906040528051906020012090509392505050565b60008054905090565b600460009054906101000a900473ffffffffffffffffffffffffffffffffffffffff1681565b600080600090505b8251811015610afd57828181518110610a9257610a916117a0565b5b602002602001015173ffffffffffffffffffffffffffffffffffffffff16838281518110610ac357610ac26117a0565b5b602002602001015173ffffffffffffffffffffffffffffffffffffffff1614610af0576000915050610b03565b8080600101915050610a76565b50600190505b919050565b60007ff0c57e16840df040f15088dc2f81fe391c3923bec73e23a9662efc9c229c6a00905090565b828054828255906000526020600020908101928215610ba9579160200282015b82811115610ba85782518260006101000a81548173ffffffffffffffffffffffffffffffffffffffff021916908373ffffffffffffffffffffffffffffffffffffffff16021790555091602001919060010190610b50565b5b509050610bb69190610bba565b5090565b5b80821115610bd3576000816000905550600101610bbb565b5090565b6000604051905090565b600080fd5b600080fd5b600073ffffffffffffffffffffffffffffffffffffffff82169050919050565b6000610c1682610beb565b9050919050565b610c2681610c0b565b8114610c3157600080fd5b50565b600081359050610c4381610c1d565b92915050565b6000819050919050565b610c5c81610c49565b8114610c6757600080fd5b50565b600081359050610c7981610c53565b92915050565b600080fd5b6000601f19601f8301169050919050565b7f4e487b7100000000000000000000000000000000000000000000000000000000600052604160045260246000fd5b610ccd82610c84565b810181811067ffffffffffffffff82111715610cec57610ceb610c95565b5b80604052505050565b6000610cff610bd7565b9050610d0b8282610cc4565b919050565b600067ffffffffffffffff821115610d2b57610d2a610c95565b5b602082029050602081019050919050565b600080fd5b600080fd5b600067ffffffffffffffff821115610d6157610d60610c95565b5b610d6a82610c84565b9050602081019050919050565b82818337600083830152505050565b6000610d99610d9484610d46565b610cf5565b905082815260208101848484011115610db557610db4610d41565b5b610dc0848285610d77565b509392505050565b600082601f830112610ddd57610ddc610c7f565b5b8135610ded848260208601610d86565b91505092915050565b6000610e09610e0484610d10565b610cf5565b90508083825260208201905060208402830185811115610e2c57610e2b610d3c565b5b835b81811015610e7357803567ffffffffffffffff811115610e5157610e50610c7f565b5b808601610e5e8982610dc8565b85526020850194505050602081019050610e2e565b5050509392505050565b600082601f830112610e9257610e91610c7f565b5b8135610ea2848260208601610df6565b91505092915050565b600080600060608486031215610ec457610ec3610be1565b5b6000610ed286828701610c34565b9350506020610ee386828701610c6a565b925050604084013567ffffffffffffffff811115610f0457610f03610be6565b5b610f1086828701610e7d565b9150509250925092565b610f2381610c49565b82525050565b6000602082019050610f3e6000830184610f1a565b92915050565b600067ffffffffffffffff821115610f5f57610f5e610c95565b5b602082029050602081019050919050565b6000610f7b82610beb565b9050919050565b610f8b81610f70565b8114610f9657600080fd5b50565b600081359050610fa881610f82565b92915050565b6000610fc1610fbc84610f44565b610cf5565b90508083825260208201905060208402830185811115610fe457610fe3610d3c565b5b835b8181101561100d5780610ff98882610f99565b845260208401935050602081019050610fe6565b5050509392505050565b600082601f83011261102c5761102b610c7f565b5b813561103c848260208601610fae565b91505092915050565b6000806040838503121561105c5761105b610be1565b5b600083013567ffffffffffffffff81111561107a57611079610be6565b5b61108685828601611017565b925050602061109785828601610c6a565b9150509250929050565b6000602082840312156110b7576110b6610be1565b5b60006110c584828501610f99565b91505092915050565b60008115159050919050565b6110e3816110ce565b82525050565b60006020820190506110fe60008301846110da565b92915050565b600067ffffffffffffffff82111561111f5761111e610c95565b5b61112882610c84565b9050602081019050919050565b600061114861114384611104565b610cf5565b90508281526020810184848401111561116457611163610d41565b5b61116f848285610d77565b509392505050565b600082601f83011261118c5761118b610c7f565b5b813561119c848260208601611135565b91505092915050565b600080600080600060a086880312156111c1576111c0610be1565b5b600086013567ffffffffffffffff8111156111df576111de610be6565b5b6111eb88828901611017565b95505060206111fc88828901610c6a565b945050604086013567ffffffffffffffff81111561121d5761121c610be6565b5b61122988828901611177565b935050606061123a88828901610c6a565b925050608061124b88828901610f99565b9150509295509295909350565b600081519050919050565b600082825260208201905092915050565b6000819050602082019050919050565b61128d81610f70565b82525050565b600061129f8383611284565b60208301905092915050565b6000602082019050919050565b60006112c382611258565b6112cd8185611263565b93506112d883611274565b8060005b838110156113095781516112f08882611293565b97506112fb836112ab565b9250506001810190506112dc565b5085935050505092915050565b6000602082019050818103600083015261133081846112b8565b905092915050565b60008060006060848603121561135157611350610be1565b5b600061135f86828701610f99565b935050602061137086828701610c6a565b925050604084013567ffffffffffffffff81111561139157611390610be6565b5b61139d86828701611177565b9150509250925092565b6000819050919050565b6113ba816113a7565b82525050565b60006020820190506113d560008301846113b1565b92915050565b6000819050919050565b60006114006113fb6113f684610beb565b6113db565b610beb565b9050919050565b6000611412826113e5565b9050919050565b600061142482611407565b9050919050565b61143481611419565b82525050565b600060208201905061144f600083018461142b565b92915050565b600082825260208201905092915050565b7f496e76616c69642076616c756500000000000000000000000000000000000000600082015250565b600061149c600d83611455565b91506114a782611466565b602082019050919050565b600060208201905081810360008301526114cb8161148f565b9050919050565b7f4e6f7420656e6f756768207369676e6174757265730000000000000000000000600082015250565b6000611508601583611455565b9150611513826114d2565b602082019050919050565b60006020820190508181036000830152611537816114fb565b9050919050565b600081905092915050565b50565b600061155960008361153e565b915061156482611549565b600082019050919050565b600061157a8261154c565b9150819050919050565b61158d81610c0b565b82525050565b60006060820190506115a86000830186610f1a565b6115b56020830185610f1a565b6115c26040830184611584565b949350505050565b7f5472616e73616374696f6e20657865637574696f6e206661696c656400000000600082015250565b6000611600601c83611455565b915061160b826115ca565b602082019050919050565b6000602082019050818103600083015261162f816115f3565b9050919050565b7f4174206c65617374206f6e65206f776e65722072657175697265640000000000600082015250565b600061166c601b83611455565b915061167782611636565b602082019050919050565b6000602082019050818103600083015261169b8161165f565b9050919050565b7f496e76616c6964206e756d626572206f66207265717569726564207369676e6160008201527f7475726573000000000000000000000000000000000000000000000000000000602082015250565b60006116fe602583611455565b9150611709826116a2565b604082019050919050565b6000602082019050818103600083015261172d816116f1565b9050919050565b7f496e76616c6964206f776e657220616464726573736573000000000000000000600082015250565b600061176a601783611455565b915061177582611734565b602082019050919050565b600060208201905081810360008301526117998161175d565b9050919050565b7f4e487b7100000000000000000000000000000000000000000000000000000000600052603260045260246000fd5b600081519050919050565b7f4e487b7100000000000000000000000000000000000000000000000000000000600052602260045260246000fd5b6000600282049050600182168061182157607f821691505b602082108103611834576118336117da565b5b50919050565b60008190508160005260206000209050919050565b60006020601f8301049050919050565b600082821b905092915050565b60006008830261189c7fffffffffffffffffffffffffffffffffffffffffffffffffffffffffffffffff8261185f565b6118a6868361185f565b95508019841693508086168417925050509392505050565b60006118d96118d46118cf84610c49565b6113db565b610c49565b9050919050565b6000819050919050565b6118f3836118be565b6119076118ff826118e0565b84845461186c565b825550505050565b600090565b61191c61190f565b6119278184846118ea565b505050565b5b8181101561194b57611940600082611914565b60018101905061192d565b5050565b601f821115611990576119618161183a565b61196a8461184f565b81016020851015611979578190505b61198d6119858561184f565b83018261192c565b50505b505050565b600082821c905092915050565b60006119b360001984600802611995565b1980831691505092915050565b60006119cc83836119a2565b9150826002028217905092915050565b6119e5826117cf565b67ffffffffffffffff8111156119fe576119fd610c95565b5b611a088254611809565b611a1382828561194f565b600060209050601f831160018114611a465760008415611a34578287015190505b611a3e85826119c0565b865550611aa6565b601f198416611a548661183a565b60005b82811015611a7c57848901518255600182019150602085019450602081019050611a57565b86831015611a995784890151611a95601f8916826119a2565b8355505b6001600288020188555050505b505050505050565b6000819050919050565b600067ffffffffffffffff82169050919050565b6000611ae7611ae2611add84611aae565b6113db565b611ab8565b9050919050565b611af781611acc565b82525050565b6000602082019050611b126000830184611aee565b92915050565b60008160601b9050919050565b6000611b3082611b18565b9050919050565b6000611b4282611b25565b9050919050565b611b5a611b5582610f70565b611b37565b82525050565b6000819050919050565b611b7b611b7682610c49565b611b60565b82525050565b600081905092915050565b60005b83811015611baa578082015181840152602081019050611b8f565b60008484015250505050565b6000611bc1826117cf565b611bcb8185611b81565b9350611bdb818560208601611b8c565b80840191505092915050565b6000611bf38286611b49565b601482019150611c038285611b6a565b602082019150611c138284611bb6565b915081905094935050505056fea2646970667358221220c14ea6f7bd17fe51a31863732882789096b9cb584d033b317b6bf2aa8ce50f9c64736f6c63430008180033",
  "linkReferences": {},
  "deployedLinkReferences": {}
}