{
  "_format": "hh-sol-artifact-1",
  "contractName": "CommunityFactory",
  "sourceName": "contracts/CommunityFactory.sol",
  "abi": [
    {
      "inputs": [
        {
          "internalType": "address",
          "name": "_implementation",
          "type": "address"
        }
      ],
      "stateMutability": "nonpayable",
      "type": "constructor"
    },
    {
      "inputs": [],
      "name": "FailedDeployment",
      "type": "error"
    },
    {
      "inputs": [
        {
          "internalType": "uint256",
          "name": "balance",
          "type": "uint256"
        },
        {
          "internalType": "uint256",
          "name": "needed",
          "type": "uint256"
        }
      ],
      "name": "InsufficientBalance",
      "type": "error"
    },
    {
      "anonymous": false,
      "inputs": [
        {
          "indexed": true,
          "internalType": "address",
          "name": "_deployer",
          "type": "address"
        },
        {
          "indexed": false,
          "internalType": "address",
          "name": "_deployedContract",
          "type": "address"
        },
        {
          "indexed": false,
          "internalType": "address",
          "name": "_implementation",
          "type": "address"
        }
      ],
      "name": "ContractDeployed",
      "type": "event"
    },
    {
      "anonymous": false,
      "inputs": [
        {
          "indexed": false,
          "internalType": "address",
          "name": "_caller",
          "type": "address"
        },
        {
          "indexed": false,
          "internalType": "address",
          "name": "_implementation",
          "type": "address"
        }
      ],
      "name": "ImplementationUpdated",
      "type": "event"
    },
    {
      "inputs": [
        {
          "internalType": "address",
          "name": "_community",
          "type": "address"
        },
        {
          "internalType": "address[]",
          "name": "_newOwners",
          "type": "address[]"
        }
      ],
      "name": "addOwnersToCommunity",
      "outputs": [],
      "stateMutability": "nonpayable",
      "type": "function"
    },
    {
      "inputs": [
        {
          "internalType": "address",
          "name": "_deployer",
          "type": "address"
        }
      ],
      "name": "countDeployed",
      "outputs": [
        {
          "internalType": "uint256",
          "name": "",
          "type": "uint256"
        }
      ],
      "stateMutability": "view",
      "type": "function"
    },
    {
      "inputs": [
        {
          "internalType": "bytes",
          "name": "_data",
          "type": "bytes"
        },
        {
          "internalType": "address[]",
          "name": "_owners",
          "type": "address[]"
        },
        {
          "internalType": "string",
          "name": "_name",
          "type": "string"
        }
      ],
      "name": "deployContract",
      "outputs": [],
      "stateMutability": "nonpayable",
      "type": "function"
    },
    {
      "inputs": [],
      "name": "getAllCommunities",
      "outputs": [
        {
          "components": [
            {
              "internalType": "address",
              "name": "contractAddress",
              "type": "address"
            },
            {
              "internalType": "address[]",
              "name": "owners",
              "type": "address[]"
            },
            {
              "internalType": "string",
              "name": "name",
              "type": "string"
            }
          ],
          "internalType": "struct CommunityFactory.Community[]",
          "name": "",
          "type": "tuple[]"
        }
      ],
      "stateMutability": "view",
      "type": "function"
    },
    {
      "inputs": [
        {
          "internalType": "address",
          "name": "_deployer",
          "type": "address"
        }
      ],
      "name": "getCommunities",
      "outputs": [
        {
          "internalType": "address[]",
          "name": "",
          "type": "address[]"
        }
      ],
      "stateMutability": "view",
      "type": "function"
    },
    {
      "inputs": [],
      "name": "implementation",
      "outputs": [
        {
          "internalType": "address",
          "name": "",
          "type": "address"
        }
      ],
      "stateMutability": "view",
      "type": "function"
    },
    {
      "inputs": [],
      "name": "owner",
      "outputs": [
        {
          "internalType": "address",
          "name": "",
          "type": "address"
        }
      ],
      "stateMutability": "view",
      "type": "function"
    },
    {
      "inputs": [
        {
          "internalType": "address",
          "name": "_implementation",
          "type": "address"
        }
      ],
      "name": "setImplementation",
      "outputs": [],
      "stateMutability": "nonpayable",
      "type": "function"
    }
  ],
  "bytecode": "0x60806040523480156200001157600080fd5b5060405162001bc038038062001bc0833981810160405281019062000037919062000129565b336000806101000a81548173ffffffffffffffffffffffffffffffffffffffff021916908373ffffffffffffffffffffffffffffffffffffffff16021790555080600160006101000a81548173ffffffffffffffffffffffffffffffffffffffff021916908373ffffffffffffffffffffffffffffffffffffffff160217905550506200015b565b600080fd5b600073ffffffffffffffffffffffffffffffffffffffff82169050919050565b6000620000f182620000c4565b9050919050565b6200010381620000e4565b81146200010f57600080fd5b50565b6000815190506200012381620000f8565b92915050565b600060208284031215620001425762000141620000bf565b5b6000620001528482850162000112565b91505092915050565b611a55806200016b6000396000f3fe608060405234801561001057600080fd5b50600436106100885760003560e01c8063611b07191161005b578063611b0719146101135780638da5cb5b1461014357806395dd0ed014610161578063d784d4261461017f57610088565b80632ed7bc4d1461008d5780632f61d632146100bd5780633884f64a146100d95780635c60da1b146100f5575b600080fd5b6100a760048036038101906100a29190610d5b565b61019b565b6040516100b49190610da1565b60405180910390f35b6100d760048036038101906100d2919061106b565b6101eb565b005b6100f360048036038101906100ee9190611112565b6104eb565b005b6100fd610656565b60405161010a919061117d565b60405180910390f35b61012d60048036038101906101289190610d5b565b61067c565b60405161013a9190611256565b60405180910390f35b61014b6106cc565b604051610158919061117d565b60405180910390f35b6101696106f0565b604051610176919061147f565b60405180910390f35b61019960048036038101906101949190610d5b565b6108c5565b005b60006101e4600260008473ffffffffffffffffffffffffffffffffffffffff1673ffffffffffffffffffffffffffffffffffffffff1681526020019081526020016000206109d0565b9050919050565b6000610218600160009054906101000a900473ffffffffffffffffffffffffffffffffffffffff166109e5565b905060008173ffffffffffffffffffffffffffffffffffffffff168560405161024191906114e8565b6000604051808303816000865af19150503d806000811461027e576040519150601f19603f3d011682016040523d82523d6000602084013e610283565b606091505b50509050806102c7576040517f08c379a00000000000000000000000000000000000000000000000000000000081526004016102be9061155c565b60405180910390fd5b6000805b85518110156103545761033f84600260008985815181106102ef576102ee61157c565b5b602002602001015173ffffffffffffffffffffffffffffffffffffffff1673ffffffffffffffffffffffffffffffffffffffff1681526020019081526020016000206109f990919063ffffffff16565b915081156103545780806001019150506102cb565b50600360405180606001604052808573ffffffffffffffffffffffffffffffffffffffff16815260200187815260200186815250908060018154018082558091505060019003906000526020600020906003020160009091909190915060008201518160000160006101000a81548173ffffffffffffffffffffffffffffffffffffffff021916908373ffffffffffffffffffffffffffffffffffffffff1602179055506020820151816001019080519060200190610414929190610c42565b50604082015181600201908161042a91906117b7565b5050506001905080610471576040517f08c379a0000000000000000000000000000000000000000000000000000000008152600401610468906118d5565b60405180910390fd5b3373ffffffffffffffffffffffffffffffffffffffff167f8a14d1d7200360982eafa429b53edf408f7f589e6da6558f3c116c7f708327b384600160009054906101000a900473ffffffffffffffffffffffffffffffffffffffff166040516104db9291906118f5565b60405180910390a2505050505050565b6000805b60038054905081101561058a578373ffffffffffffffffffffffffffffffffffffffff16600382815481106105275761052661157c565b5b906000526020600020906003020160000160009054906101000a900473ffffffffffffffffffffffffffffffffffffffff1673ffffffffffffffffffffffffffffffffffffffff160361057d576001915061058a565b80806001019150506104ef565b50806105cb576040517f08c379a00000000000000000000000000000000000000000000000000000000081526004016105c29061196a565b60405180910390fd5b60005b82518110156106505761064284600260008685815181106105f2576105f161157c565b5b602002602001015173ffffffffffffffffffffffffffffffffffffffff1673ffffffffffffffffffffffffffffffffffffffff1681526020019081526020016000206109f990919063ffffffff16565b5080806001019150506105ce565b50505050565b600160009054906101000a900473ffffffffffffffffffffffffffffffffffffffff1681565b60606106c5600260008473ffffffffffffffffffffffffffffffffffffffff1673ffffffffffffffffffffffffffffffffffffffff168152602001908152602001600020610a29565b9050919050565b60008054906101000a900473ffffffffffffffffffffffffffffffffffffffff1681565b60606003805480602002602001604051908101604052809291908181526020016000905b828210156108bc57838290600052602060002090600302016040518060600160405290816000820160009054906101000a900473ffffffffffffffffffffffffffffffffffffffff1673ffffffffffffffffffffffffffffffffffffffff1673ffffffffffffffffffffffffffffffffffffffff1681526020016001820180548060200260200160405190810160405280929190818152602001828054801561081257602002820191906000526020600020905b8160009054906101000a900473ffffffffffffffffffffffffffffffffffffffff1673ffffffffffffffffffffffffffffffffffffffff16815260200190600101908083116107c8575b5050505050815260200160028201805461082b906115da565b80601f0160208091040260200160405190810160405280929190818152602001828054610857906115da565b80156108a45780601f10610879576101008083540402835291602001916108a4565b820191906000526020600020905b81548152906001019060200180831161088757829003601f168201915b50505050508152505081526020019060010190610714565b50505050905090565b60008054906101000a900473ffffffffffffffffffffffffffffffffffffffff1673ffffffffffffffffffffffffffffffffffffffff163373ffffffffffffffffffffffffffffffffffffffff1614610953576040517f08c379a000000000000000000000000000000000000000000000000000000000815260040161094a906119d6565b60405180910390fd5b80600160006101000a81548173ffffffffffffffffffffffffffffffffffffffff021916908373ffffffffffffffffffffffffffffffffffffffff1602179055507faa3f731066a578e5f39b4215468d826cdd15373cbc0dfc9cb9bdc649718ef7da33826040516109c59291906118f5565b60405180910390a150565b60006109de82600001610a4a565b9050919050565b60006109f2826000610a5b565b9050919050565b6000610a21836000018373ffffffffffffffffffffffffffffffffffffffff1660001b610b53565b905092915050565b60606000610a3983600001610bc3565b905060608190508092505050919050565b600081600001805490509050919050565b600081471015610aa45747826040517fcf479181000000000000000000000000000000000000000000000000000000008152600401610a9b9291906119f6565b60405180910390fd5b763d602d80600a3d3981f3363d3d373d3d3d363d730000008360601b60e81c176000526e5af43d82803e903d91602b57fd5bf38360781b176020526037600983f09050600073ffffffffffffffffffffffffffffffffffffffff168173ffffffffffffffffffffffffffffffffffffffff1603610b4d576040517fb06ebf3d00000000000000000000000000000000000000000000000000000000815260040160405180910390fd5b92915050565b6000610b5f8383610c1f565b610bb8578260000182908060018154018082558091505060019003906000526020600020016000909190919091505582600001805490508360010160008481526020019081526020016000208190555060019050610bbd565b600090505b92915050565b606081600001805480602002602001604051908101604052809291908181526020018280548015610c1357602002820191906000526020600020905b815481526020019060010190808311610bff575b50505050509050919050565b600080836001016000848152602001908152602001600020541415905092915050565b828054828255906000526020600020908101928215610cbb579160200282015b82811115610cba5782518260006101000a81548173ffffffffffffffffffffffffffffffffffffffff021916908373ffffffffffffffffffffffffffffffffffffffff16021790555091602001919060010190610c62565b5b509050610cc89190610ccc565b5090565b5b80821115610ce5576000816000905550600101610ccd565b5090565b6000604051905090565b600080fd5b600080fd5b600073ffffffffffffffffffffffffffffffffffffffff82169050919050565b6000610d2882610cfd565b9050919050565b610d3881610d1d565b8114610d4357600080fd5b50565b600081359050610d5581610d2f565b92915050565b600060208284031215610d7157610d70610cf3565b5b6000610d7f84828501610d46565b91505092915050565b6000819050919050565b610d9b81610d88565b82525050565b6000602082019050610db66000830184610d92565b92915050565b600080fd5b600080fd5b6000601f19601f8301169050919050565b7f4e487b7100000000000000000000000000000000000000000000000000000000600052604160045260246000fd5b610e0f82610dc6565b810181811067ffffffffffffffff82111715610e2e57610e2d610dd7565b5b80604052505050565b6000610e41610ce9565b9050610e4d8282610e06565b919050565b600067ffffffffffffffff821115610e6d57610e6c610dd7565b5b610e7682610dc6565b9050602081019050919050565b82818337600083830152505050565b6000610ea5610ea084610e52565b610e37565b905082815260208101848484011115610ec157610ec0610dc1565b5b610ecc848285610e83565b509392505050565b600082601f830112610ee957610ee8610dbc565b5b8135610ef9848260208601610e92565b91505092915050565b600067ffffffffffffffff821115610f1d57610f1c610dd7565b5b602082029050602081019050919050565b600080fd5b6000610f46610f4184610f02565b610e37565b90508083825260208201905060208402830185811115610f6957610f68610f2e565b5b835b81811015610f925780610f7e8882610d46565b845260208401935050602081019050610f6b565b5050509392505050565b600082601f830112610fb157610fb0610dbc565b5b8135610fc1848260208601610f33565b91505092915050565b600067ffffffffffffffff821115610fe557610fe4610dd7565b5b610fee82610dc6565b9050602081019050919050565b600061100e61100984610fca565b610e37565b90508281526020810184848401111561102a57611029610dc1565b5b611035848285610e83565b509392505050565b600082601f83011261105257611051610dbc565b5b8135611062848260208601610ffb565b91505092915050565b60008060006060848603121561108457611083610cf3565b5b600084013567ffffffffffffffff8111156110a2576110a1610cf8565b5b6110ae86828701610ed4565b935050602084013567ffffffffffffffff8111156110cf576110ce610cf8565b5b6110db86828701610f9c565b925050604084013567ffffffffffffffff8111156110fc576110fb610cf8565b5b6111088682870161103d565b9150509250925092565b6000806040838503121561112957611128610cf3565b5b600061113785828601610d46565b925050602083013567ffffffffffffffff81111561115857611157610cf8565b5b61116485828601610f9c565b9150509250929050565b61117781610d1d565b82525050565b6000602082019050611192600083018461116e565b92915050565b600081519050919050565b600082825260208201905092915050565b6000819050602082019050919050565b6111cd81610d1d565b82525050565b60006111df83836111c4565b60208301905092915050565b6000602082019050919050565b600061120382611198565b61120d81856111a3565b9350611218836111b4565b8060005b8381101561124957815161123088826111d3565b975061123b836111eb565b92505060018101905061121c565b5085935050505092915050565b6000602082019050818103600083015261127081846111f8565b905092915050565b600081519050919050565b600082825260208201905092915050565b6000819050602082019050919050565b600082825260208201905092915050565b60006112c082611198565b6112ca81856112a4565b93506112d5836111b4565b8060005b838110156113065781516112ed88826111d3565b97506112f8836111eb565b9250506001810190506112d9565b5085935050505092915050565b600081519050919050565b600082825260208201905092915050565b60005b8381101561134d578082015181840152602081019050611332565b60008484015250505050565b600061136482611313565b61136e818561131e565b935061137e81856020860161132f565b61138781610dc6565b840191505092915050565b60006060830160008301516113aa60008601826111c4565b50602083015184820360208601526113c282826112b5565b915050604083015184820360408601526113dc8282611359565b9150508091505092915050565b60006113f58383611392565b905092915050565b6000602082019050919050565b600061141582611278565b61141f8185611283565b93508360208202850161143185611294565b8060005b8581101561146d578484038952815161144e85826113e9565b9450611459836113fd565b925060208a01995050600181019050611435565b50829750879550505050505092915050565b60006020820190508181036000830152611499818461140a565b905092915050565b600081519050919050565b600081905092915050565b60006114c2826114a1565b6114cc81856114ac565b93506114dc81856020860161132f565b80840191505092915050565b60006114f482846114b7565b915081905092915050565b600082825260208201905092915050565b7f4661696c656420746f20696e697469616c697a6520636f6e7472616374210000600082015250565b6000611546601e836114ff565b915061155182611510565b602082019050919050565b6000602082019050818103600083015261157581611539565b9050919050565b7f4e487b7100000000000000000000000000000000000000000000000000000000600052603260045260246000fd5b7f4e487b7100000000000000000000000000000000000000000000000000000000600052602260045260246000fd5b600060028204905060018216806115f257607f821691505b602082108103611605576116046115ab565b5b50919050565b60008190508160005260206000209050919050565b60006020601f8301049050919050565b600082821b905092915050565b60006008830261166d7fffffffffffffffffffffffffffffffffffffffffffffffffffffffffffffffff82611630565b6116778683611630565b95508019841693508086168417925050509392505050565b6000819050919050565b60006116b46116af6116aa84610d88565b61168f565b610d88565b9050919050565b6000819050919050565b6116ce83611699565b6116e26116da826116bb565b84845461163d565b825550505050565b600090565b6116f76116ea565b6117028184846116c5565b505050565b5b818110156117265761171b6000826116ef565b600181019050611708565b5050565b601f82111561176b5761173c8161160b565b61174584611620565b81016020851015611754578190505b61176861176085611620565b830182611707565b50505b505050565b600082821c905092915050565b600061178e60001984600802611770565b1980831691505092915050565b60006117a7838361177d565b9150826002028217905092915050565b6117c082611313565b67ffffffffffffffff8111156117d9576117d8610dd7565b5b6117e382546115da565b6117ee82828561172a565b600060209050601f831160018114611821576000841561180f578287015190505b611819858261179b565b865550611881565b601f19841661182f8661160b565b60005b8281101561185757848901518255600182019150602085019450602081019050611832565b868310156118745784890151611870601f89168261177d565b8355505b6001600288020188555050505b505050505050565b7f4e6f7420616c6c206f776e65727320616464656420746f207265676973747279600082015250565b60006118bf6020836114ff565b91506118ca82611889565b602082019050919050565b600060208201905081810360008301526118ee816118b2565b9050919050565b600060408201905061190a600083018561116e565b611917602083018461116e565b9392505050565b7f436f6d6d756e697479206e6f7420666f756e6421000000000000000000000000600082015250565b60006119546014836114ff565b915061195f8261191e565b602082019050919050565b6000602082019050818103600083015261198381611947565b9050919050565b7f4e6f74206f776e65722100000000000000000000000000000000000000000000600082015250565b60006119c0600a836114ff565b91506119cb8261198a565b602082019050919050565b600060208201905081810360008301526119ef816119b3565b9050919050565b6000604082019050611a0b6000830185610d92565b611a186020830184610d92565b939250505056fea2646970667358221220cf07ba5d73dcefb57a542333bc556debc17904bec8413e0a04645449222dd8a364736f6c63430008180033",
  "linkReferences": {},
  "deployedLinkReferences": {}
}